{
  "abi": [
    {
      "inputs": [
        {
          "internalType": "string",
          "name": "_base_uri",
          "type": "string"
        }
      ],
      "stateMutability": "nonpayable",
      "type": "constructor"
    },
    {
      "anonymous": false,
      "inputs": [
        {
          "indexed": true,
          "internalType": "address",
          "name": "account",
          "type": "address"
        },
        {
          "indexed": true,
          "internalType": "address",
          "name": "operator",
          "type": "address"
        },
        {
          "indexed": false,
          "internalType": "bool",
          "name": "approved",
          "type": "bool"
        }
      ],
      "name": "ApprovalForAll",
      "type": "event"
    },
    {
      "anonymous": false,
      "inputs": [
        {
          "indexed": true,
          "internalType": "address",
          "name": "account",
          "type": "address"
        },
        {
          "indexed": true,
          "internalType": "uint256",
          "name": "id",
          "type": "uint256"
        },
        {
          "indexed": false,
          "internalType": "uint256",
          "name": "amount",
          "type": "uint256"
        },
        {
          "indexed": false,
          "internalType": "bytes",
          "name": "data",
          "type": "bytes"
        }
      ],
      "name": "Mint",
      "type": "event"
    },
    {
      "anonymous": false,
      "inputs": [
        {
          "indexed": true,
          "internalType": "bytes32",
          "name": "role",
          "type": "bytes32"
        },
        {
          "indexed": true,
          "internalType": "bytes32",
          "name": "previousAdminRole",
          "type": "bytes32"
        },
        {
          "indexed": true,
          "internalType": "bytes32",
          "name": "newAdminRole",
          "type": "bytes32"
        }
      ],
      "name": "RoleAdminChanged",
      "type": "event"
    },
    {
      "anonymous": false,
      "inputs": [
        {
          "indexed": true,
          "internalType": "bytes32",
          "name": "role",
          "type": "bytes32"
        },
        {
          "indexed": true,
          "internalType": "address",
          "name": "account",
          "type": "address"
        },
        {
          "indexed": true,
          "internalType": "address",
          "name": "sender",
          "type": "address"
        }
      ],
      "name": "RoleGranted",
      "type": "event"
    },
    {
      "anonymous": false,
      "inputs": [
        {
          "indexed": true,
          "internalType": "bytes32",
          "name": "role",
          "type": "bytes32"
        },
        {
          "indexed": true,
          "internalType": "address",
          "name": "account",
          "type": "address"
        },
        {
          "indexed": true,
          "internalType": "address",
          "name": "sender",
          "type": "address"
        }
      ],
      "name": "RoleRevoked",
      "type": "event"
    },
    {
      "anonymous": false,
      "inputs": [
        {
          "indexed": true,
          "internalType": "address",
          "name": "operator",
          "type": "address"
        },
        {
          "indexed": true,
          "internalType": "address",
          "name": "from",
          "type": "address"
        },
        {
          "indexed": true,
          "internalType": "address",
          "name": "to",
          "type": "address"
        },
        {
          "indexed": false,
          "internalType": "uint256[]",
          "name": "ids",
          "type": "uint256[]"
        },
        {
          "indexed": false,
          "internalType": "uint256[]",
          "name": "values",
          "type": "uint256[]"
        }
      ],
      "name": "TransferBatch",
      "type": "event"
    },
    {
      "anonymous": false,
      "inputs": [
        {
          "indexed": true,
          "internalType": "address",
          "name": "operator",
          "type": "address"
        },
        {
          "indexed": true,
          "internalType": "address",
          "name": "from",
          "type": "address"
        },
        {
          "indexed": true,
          "internalType": "address",
          "name": "to",
          "type": "address"
        },
        {
          "indexed": false,
          "internalType": "uint256",
          "name": "id",
          "type": "uint256"
        },
        {
          "indexed": false,
          "internalType": "uint256",
          "name": "value",
          "type": "uint256"
        }
      ],
      "name": "TransferSingle",
      "type": "event"
    },
    {
      "anonymous": false,
      "inputs": [
        {
          "indexed": false,
          "internalType": "string",
          "name": "value",
          "type": "string"
        },
        {
          "indexed": true,
          "internalType": "uint256",
          "name": "id",
          "type": "uint256"
        }
      ],
      "name": "URI",
      "type": "event"
    },
    {
      "inputs": [],
      "name": "DEFAULT_ADMIN_ROLE",
      "outputs": [
        {
          "internalType": "bytes32",
          "name": "",
          "type": "bytes32"
        }
      ],
      "stateMutability": "view",
      "type": "function"
    },
    {
      "inputs": [],
      "name": "MINTER_ROLE",
      "outputs": [
        {
          "internalType": "bytes32",
          "name": "",
          "type": "bytes32"
        }
      ],
      "stateMutability": "view",
      "type": "function"
    },
    {
      "inputs": [
        {
          "internalType": "address",
          "name": "account",
          "type": "address"
        }
      ],
      "name": "addAdminRole",
      "outputs": [],
      "stateMutability": "nonpayable",
      "type": "function"
    },
    {
      "inputs": [
        {
          "internalType": "address",
          "name": "account",
          "type": "address"
        }
      ],
      "name": "addMinterRole",
      "outputs": [],
      "stateMutability": "nonpayable",
      "type": "function"
    },
    {
      "inputs": [
        {
          "internalType": "address",
          "name": "account",
          "type": "address"
        },
        {
          "internalType": "uint256",
          "name": "id",
          "type": "uint256"
        }
      ],
      "name": "balanceOf",
      "outputs": [
        {
          "internalType": "uint256",
          "name": "",
          "type": "uint256"
        }
      ],
      "stateMutability": "view",
      "type": "function"
    },
    {
      "inputs": [
        {
          "internalType": "address[]",
          "name": "accounts",
          "type": "address[]"
        },
        {
          "internalType": "uint256[]",
          "name": "ids",
          "type": "uint256[]"
        }
      ],
      "name": "balanceOfBatch",
      "outputs": [
        {
          "internalType": "uint256[]",
          "name": "",
          "type": "uint256[]"
        }
      ],
      "stateMutability": "view",
      "type": "function"
    },
    {
      "inputs": [],
      "name": "base_uri",
      "outputs": [
        {
          "internalType": "string",
          "name": "",
          "type": "string"
        }
      ],
      "stateMutability": "view",
      "type": "function"
    },
    {
      "inputs": [],
      "name": "contractURI",
      "outputs": [
        {
          "internalType": "string",
          "name": "",
          "type": "string"
        }
      ],
      "stateMutability": "view",
      "type": "function"
    },
    {
      "inputs": [
        {
          "internalType": "bytes32",
          "name": "role",
          "type": "bytes32"
        }
      ],
      "name": "getRoleAdmin",
      "outputs": [
        {
          "internalType": "bytes32",
          "name": "",
          "type": "bytes32"
        }
      ],
      "stateMutability": "view",
      "type": "function"
    },
    {
      "inputs": [
        {
          "internalType": "bytes32",
          "name": "role",
          "type": "bytes32"
        },
        {
          "internalType": "address",
          "name": "account",
          "type": "address"
        }
      ],
      "name": "grantRole",
      "outputs": [],
      "stateMutability": "nonpayable",
      "type": "function"
    },
    {
      "inputs": [
        {
          "internalType": "bytes32",
          "name": "role",
          "type": "bytes32"
        },
        {
          "internalType": "address",
          "name": "account",
          "type": "address"
        }
      ],
      "name": "hasRole",
      "outputs": [
        {
          "internalType": "bool",
          "name": "",
          "type": "bool"
        }
      ],
      "stateMutability": "view",
      "type": "function"
    },
    {
      "inputs": [
        {
          "internalType": "address",
          "name": "account",
          "type": "address"
        },
        {
          "internalType": "address",
          "name": "operator",
          "type": "address"
        }
      ],
      "name": "isApprovedForAll",
      "outputs": [
        {
          "internalType": "bool",
          "name": "",
          "type": "bool"
        }
      ],
      "stateMutability": "view",
      "type": "function"
    },
    {
      "inputs": [
        {
          "internalType": "address",
          "name": "account",
          "type": "address"
        },
        {
          "internalType": "uint256",
          "name": "id",
          "type": "uint256"
        },
        {
          "internalType": "uint256",
          "name": "amount",
          "type": "uint256"
        },
        {
          "internalType": "bytes",
          "name": "data",
          "type": "bytes"
        }
      ],
      "name": "mint",
      "outputs": [],
      "stateMutability": "nonpayable",
      "type": "function"
    },
    {
      "inputs": [
        {
          "internalType": "address",
          "name": "account",
          "type": "address"
        }
      ],
      "name": "removeAdminRole",
      "outputs": [],
      "stateMutability": "nonpayable",
      "type": "function"
    },
    {
      "inputs": [
        {
          "internalType": "address",
          "name": "account",
          "type": "address"
        }
      ],
      "name": "removeMinterRole",
      "outputs": [],
      "stateMutability": "nonpayable",
      "type": "function"
    },
    {
      "inputs": [
        {
          "internalType": "bytes32",
          "name": "role",
          "type": "bytes32"
        },
        {
          "internalType": "address",
          "name": "account",
          "type": "address"
        }
      ],
      "name": "renounceRole",
      "outputs": [],
      "stateMutability": "nonpayable",
      "type": "function"
    },
    {
      "inputs": [
        {
          "internalType": "bytes32",
          "name": "role",
          "type": "bytes32"
        },
        {
          "internalType": "address",
          "name": "account",
          "type": "address"
        }
      ],
      "name": "revokeRole",
      "outputs": [],
      "stateMutability": "nonpayable",
      "type": "function"
    },
    {
      "inputs": [
        {
          "internalType": "address",
          "name": "from",
          "type": "address"
        },
        {
          "internalType": "address",
          "name": "to",
          "type": "address"
        },
        {
          "internalType": "uint256[]",
          "name": "ids",
          "type": "uint256[]"
        },
        {
          "internalType": "uint256[]",
          "name": "amounts",
          "type": "uint256[]"
        },
        {
          "internalType": "bytes",
          "name": "data",
          "type": "bytes"
        }
      ],
      "name": "safeBatchTransferFrom",
      "outputs": [],
      "stateMutability": "nonpayable",
      "type": "function"
    },
    {
      "inputs": [
        {
          "internalType": "address",
          "name": "from",
          "type": "address"
        },
        {
          "internalType": "address",
          "name": "to",
          "type": "address"
        },
        {
          "internalType": "uint256",
          "name": "id",
          "type": "uint256"
        },
        {
          "internalType": "uint256",
          "name": "amount",
          "type": "uint256"
        },
        {
          "internalType": "bytes",
          "name": "data",
          "type": "bytes"
        }
      ],
      "name": "safeTransferFrom",
      "outputs": [],
      "stateMutability": "nonpayable",
      "type": "function"
    },
    {
      "inputs": [
        {
          "internalType": "address",
          "name": "operator",
          "type": "address"
        },
        {
          "internalType": "bool",
          "name": "approved",
          "type": "bool"
        }
      ],
      "name": "setApprovalForAll",
      "outputs": [],
      "stateMutability": "nonpayable",
      "type": "function"
    },
    {
      "inputs": [
        {
          "internalType": "bytes4",
          "name": "interfaceId",
          "type": "bytes4"
        }
      ],
      "name": "supportsInterface",
      "outputs": [
        {
          "internalType": "bool",
          "name": "",
          "type": "bool"
        }
      ],
      "stateMutability": "view",
      "type": "function"
    },
    {
      "inputs": [
        {
          "internalType": "uint256",
          "name": "_tokenid",
          "type": "uint256"
        }
      ],
      "name": "uri",
      "outputs": [
        {
          "internalType": "string",
          "name": "",
          "type": "string"
        }
      ],
      "stateMutability": "view",
      "type": "function"
    }
  ],
  "bytecode": {
    "object": "0x60a0604052600060809081526004906200001a9082620001ed565b503480156200002857600080fd5b506040516200239f3803806200239f8339810160408190526200004b91620002b9565b604080516020810190915260008152620000658162000089565b506004620000748282620001ed565b50620000826000336200009b565b506200038e565b6002620000978282620001ed565b5050565b60008281526003602090815260408083206001600160a01b038516845290915290205462000097908390839060ff16620000975760008281526003602090815260408083206001600160a01b03851684529091529020805460ff19166001179055620001043390565b6001600160a01b0316816001600160a01b0316837f2f8788117e7eff1d82e926ec794901d17c78024a50270940304540a733656f0d60405160405180910390a45050565b634e487b7160e01b600052604160045260246000fd5b600181811c908216806200017357607f821691505b6020821081036200019457634e487b7160e01b600052602260045260246000fd5b50919050565b601f821115620001e857600081815260208120601f850160051c81016020861015620001c35750805b601f850160051c820191505b81811015620001e457828155600101620001cf565b5050505b505050565b81516001600160401b0381111562000209576200020962000148565b62000221816200021a84546200015e565b846200019a565b602080601f831160018114620002595760008415620002405750858301515b600019600386901b1c1916600185901b178555620001e4565b600085815260208120601f198616915b828110156200028a5788860151825594840194600190910190840162000269565b5085821015620002a95787850151600019600388901b60f8161c191681555b5050505050600190811b01905550565b60006020808385031215620002cd57600080fd5b82516001600160401b0380821115620002e557600080fd5b818501915085601f830112620002fa57600080fd5b8151818111156200030f576200030f62000148565b604051601f8201601f19908116603f011681019083821181831017156200033a576200033a62000148565b8160405282815288868487010111156200035357600080fd5b600093505b8284101562000377578484018601518185018701529285019262000358565b600086848301015280965050505050505092915050565b612001806200039e6000396000f3fe608060405234801561001057600080fd5b50600436106101415760003560e01c8063786f2910116100b8578063d53913931161007c578063d5391393146102af578063d547741f146102c4578063dccfe310146102d7578063e8a3d485146102ea578063e985e9c5146102f2578063f242432a1461032e57600080fd5b8063786f29101461026657806391d148541461026e578063a217fddf14610281578063a22cb46514610289578063adbf37761461029c57600080fd5b80632f2ff15d1161010a5780632f2ff15d146101e757806336568abe146101fa5780634e1273f41461020d57806354f1e1261461022d5780636595171c14610240578063731133e91461025357600080fd5b8062fdd58e1461014657806301ffc9a71461016c5780630e89341c1461018f578063248a9ca3146101af5780632eb2c2d6146101d2575b600080fd5b610159610154366004611546565b610341565b6040519081526020015b60405180910390f35b61017f61017a366004611586565b6103da565b6040519015158152602001610163565b6101a261019d3660046115a3565b6103f4565b604051610163919061160c565b6101596101bd3660046115a3565b60009081526003602052604090206001015490565b6101e56101e036600461176b565b610428565b005b6101e56101f5366004611815565b610474565b6101e5610208366004611815565b61049e565b61022061021b366004611841565b61051c565b6040516101639190611947565b6101e561023b36600461195a565b610646565b6101e561024e36600461195a565b610669565b6101e5610261366004611975565b61067f565b6101a26106ee565b61017f61027c366004611815565b61077c565b610159600081565b6101e56102973660046119d6565b6107a7565b6101e56102aa36600461195a565b6107b2565b610159600080516020611fac83398151915281565b6101e56102d2366004611815565b6107d5565b6101e56102e536600461195a565b6107fa565b6101a2610879565b61017f610300366004611a12565b6001600160a01b03918216600090815260016020908152604080832093909416825291909152205460ff1690565b6101e561033c366004611a3c565b6108a1565b60006001600160a01b0383166103b15760405162461bcd60e51b815260206004820152602a60248201527f455243313135353a2061646472657373207a65726f206973206e6f742061207660448201526930b634b21037bbb732b960b11b60648201526084015b60405180910390fd5b506000818152602081815260408083206001600160a01b03861684529091529020545b92915050565b60006103e5826108e6565b806103d457506103d482610936565b606060046104018361095b565b604051602001610412929190611b78565b6040516020818303038152906040529050919050565b6001600160a01b03851633148061044457506104448533610300565b6104605760405162461bcd60e51b81526004016103a890611bad565b61046d85858585856109ee565b5050505050565b60008281526003602052604090206001015461048f81610bcb565b6104998383610bd8565b505050565b6001600160a01b038116331461050e5760405162461bcd60e51b815260206004820152602f60248201527f416363657373436f6e74726f6c3a2063616e206f6e6c792072656e6f756e636560448201526e103937b632b9903337b91039b2b63360891b60648201526084016103a8565b6105188282610c5e565b5050565b606081518351146105815760405162461bcd60e51b815260206004820152602960248201527f455243313135353a206163636f756e747320616e6420696473206c656e677468604482015268040dad2e6dac2e8c6d60bb1b60648201526084016103a8565b6000835167ffffffffffffffff81111561059d5761059d61161f565b6040519080825280602002602001820160405280156105c6578160200160208202803683370190505b50905060005b845181101561063e576106118582815181106105ea576105ea611bfb565b602002602001015185838151811061060457610604611bfb565b6020026020010151610341565b82828151811061062357610623611bfb565b602090810291909101015261063781611c27565b90506105cc565b509392505050565b600061065181610bcb565b610518600080516020611fac833981519152836107d5565b600061067481610bcb565b610518600083610474565b600080516020611fac83398151915261069781610bcb565b6106a385858585610cc5565b83856001600160a01b03167f6f22b1e1e34475d2453ef65c35f74a9b1e2183b5038d895d7f439cc9121a8c8285856040516106df929190611c40565b60405180910390a35050505050565b600480546106fb90611aa1565b80601f016020809104026020016040519081016040528092919081815260200182805461072790611aa1565b80156107745780601f1061074957610100808354040283529160200191610774565b820191906000526020600020905b81548152906001019060200180831161075757829003601f168201915b505050505081565b60009182526003602090815260408084206001600160a01b0393909316845291905290205460ff1690565b610518338383610dd9565b60006107bd81610bcb565b610518600080516020611fac83398151915283610474565b6000828152600360205260409020600101546107f081610bcb565b6104998383610c5e565b600061080581610bcb565b336001600160a01b0383160361086e5760405162461bcd60e51b815260206004820152602860248201527f43616e6e6f74207265766f6b65206f6e6573656c662066726f6d20616e2061646044820152676d696e20726f6c6560c01b60648201526084016103a8565b6105186000836107d5565b6060600460405160200161088d9190611c61565b604051602081830303815290604052905090565b6001600160a01b0385163314806108bd57506108bd8533610300565b6108d95760405162461bcd60e51b81526004016103a890611bad565b61046d8585858585610eb9565b60006001600160e01b03198216636cdb3d1360e11b148061091757506001600160e01b031982166303a24d0760e21b145b806103d457506301ffc9a760e01b6001600160e01b03198316146103d4565b60006001600160e01b03198216637965db0b60e01b14806103d457506103d4826108e6565b6060600061096883610fe3565b600101905060008167ffffffffffffffff8111156109885761098861161f565b6040519080825280601f01601f1916602001820160405280156109b2576020820181803683370190505b5090508181016020015b600019016f181899199a1a9b1b9c1cb0b131b232b360811b600a86061a8153600a85049450846109bc57509392505050565b8151835114610a505760405162461bcd60e51b815260206004820152602860248201527f455243313135353a2069647320616e6420616d6f756e7473206c656e677468206044820152670dad2e6dac2e8c6d60c31b60648201526084016103a8565b6001600160a01b038416610a765760405162461bcd60e51b81526004016103a890611c8a565b3360005b8451811015610b5d576000858281518110610a9757610a97611bfb565b602002602001015190506000858381518110610ab557610ab5611bfb565b602090810291909101810151600084815280835260408082206001600160a01b038e168352909352919091205490915081811015610b055760405162461bcd60e51b81526004016103a890611ccf565b6000838152602081815260408083206001600160a01b038e8116855292528083208585039055908b16825281208054849290610b42908490611d19565b9250508190555050505080610b5690611c27565b9050610a7a565b50846001600160a01b0316866001600160a01b0316826001600160a01b03167f4a39dc06d4c0dbc64b70af90fd698a233a518aa5d07e595d983b8c0526c8f7fb8787604051610bad929190611d2c565b60405180910390a4610bc38187878787876110bb565b505050505050565b610bd58133611216565b50565b610be2828261077c565b6105185760008281526003602090815260408083206001600160a01b03851684529091529020805460ff19166001179055610c1a3390565b6001600160a01b0316816001600160a01b0316837f2f8788117e7eff1d82e926ec794901d17c78024a50270940304540a733656f0d60405160405180910390a45050565b610c68828261077c565b156105185760008281526003602090815260408083206001600160a01b0385168085529252808320805460ff1916905551339285917ff6391f5c32d9c69d2a47ea670b442974b53935d1edc7fd64eb21e047a839171b9190a45050565b6001600160a01b038416610d255760405162461bcd60e51b815260206004820152602160248201527f455243313135353a206d696e7420746f20746865207a65726f206164647265736044820152607360f81b60648201526084016103a8565b336000610d318561126f565b90506000610d3e8561126f565b90506000868152602081815260408083206001600160a01b038b16845290915281208054879290610d70908490611d19565b909155505060408051878152602081018790526001600160a01b03808a1692600092918716917fc3d58168c5ae7397731d063d5bbf3d657854427343f4c083240f7aacaa2d0f62910160405180910390a4610dd0836000898989896112ba565b50505050505050565b816001600160a01b0316836001600160a01b031603610e4c5760405162461bcd60e51b815260206004820152602960248201527f455243313135353a2073657474696e6720617070726f76616c20737461747573604482015268103337b91039b2b63360b91b60648201526084016103a8565b6001600160a01b03838116600081815260016020908152604080832094871680845294825291829020805460ff191686151590811790915591519182527f17307eab39ab6107e8899845ad3d59bd9653f200f220920489ca2b5937696c31910160405180910390a3505050565b6001600160a01b038416610edf5760405162461bcd60e51b81526004016103a890611c8a565b336000610eeb8561126f565b90506000610ef88561126f565b90506000868152602081815260408083206001600160a01b038c16845290915290205485811015610f3b5760405162461bcd60e51b81526004016103a890611ccf565b6000878152602081815260408083206001600160a01b038d8116855292528083208985039055908a16825281208054889290610f78908490611d19565b909155505060408051888152602081018890526001600160a01b03808b16928c821692918816917fc3d58168c5ae7397731d063d5bbf3d657854427343f4c083240f7aacaa2d0f62910160405180910390a4610fd8848a8a8a8a8a6112ba565b505050505050505050565b60008072184f03e93ff9f4daa797ed6e38ed64bf6a1f0160401b83106110225772184f03e93ff9f4daa797ed6e38ed64bf6a1f0160401b830492506040015b6d04ee2d6d415b85acef8100000000831061104e576d04ee2d6d415b85acef8100000000830492506020015b662386f26fc10000831061106c57662386f26fc10000830492506010015b6305f5e1008310611084576305f5e100830492506008015b612710831061109857612710830492506004015b606483106110aa576064830492506002015b600a83106103d45760010192915050565b6001600160a01b0384163b15610bc35760405163bc197c8160e01b81526001600160a01b0385169063bc197c81906110ff9089908990889088908890600401611d5a565b6020604051808303816000875af192505050801561113a575060408051601f3d908101601f1916820190925261113791810190611db8565b60015b6111e657611146611dd5565b806308c379a00361117f575061115a611df1565b806111655750611181565b8060405162461bcd60e51b81526004016103a8919061160c565b505b60405162461bcd60e51b815260206004820152603460248201527f455243313135353a207472616e7366657220746f206e6f6e2d455243313135356044820152732932b1b2b4bb32b91034b6b83632b6b2b73a32b960611b60648201526084016103a8565b6001600160e01b0319811663bc197c8160e01b14610dd05760405162461bcd60e51b81526004016103a890611e7b565b611220828261077c565b6105185761122d81611375565b611238836020611387565b604051602001611249929190611ec3565b60408051601f198184030181529082905262461bcd60e51b82526103a89160040161160c565b604080516001808252818301909252606091600091906020808301908036833701905050905082816000815181106112a9576112a9611bfb565b602090810291909101015292915050565b6001600160a01b0384163b15610bc35760405163f23a6e6160e01b81526001600160a01b0385169063f23a6e61906112fe9089908990889088908890600401611f38565b6020604051808303816000875af1925050508015611339575060408051601f3d908101601f1916820190925261133691810190611db8565b60015b61134557611146611dd5565b6001600160e01b0319811663f23a6e6160e01b14610dd05760405162461bcd60e51b81526004016103a890611e7b565b60606103d46001600160a01b03831660145b60606000611396836002611f7d565b6113a1906002611d19565b67ffffffffffffffff8111156113b9576113b961161f565b6040519080825280601f01601f1916602001820160405280156113e3576020820181803683370190505b509050600360fc1b816000815181106113fe576113fe611bfb565b60200101906001600160f81b031916908160001a905350600f60fb1b8160018151811061142d5761142d611bfb565b60200101906001600160f81b031916908160001a9053506000611451846002611f7d565b61145c906001611d19565b90505b60018111156114d4576f181899199a1a9b1b9c1cb0b131b232b360811b85600f166010811061149057611490611bfb565b1a60f81b8282815181106114a6576114a6611bfb565b60200101906001600160f81b031916908160001a90535060049490941c936114cd81611f94565b905061145f565b5083156115235760405162461bcd60e51b815260206004820181905260248201527f537472696e67733a20686578206c656e67746820696e73756666696369656e7460448201526064016103a8565b9392505050565b80356001600160a01b038116811461154157600080fd5b919050565b6000806040838503121561155957600080fd5b6115628361152a565b946020939093013593505050565b6001600160e01b031981168114610bd557600080fd5b60006020828403121561159857600080fd5b813561152381611570565b6000602082840312156115b557600080fd5b5035919050565b60005b838110156115d75781810151838201526020016115bf565b50506000910152565b600081518084526115f88160208601602086016115bc565b601f01601f19169290920160200192915050565b60208152600061152360208301846115e0565b634e487b7160e01b600052604160045260246000fd5b601f8201601f1916810167ffffffffffffffff8111828210171561165b5761165b61161f565b6040525050565b600067ffffffffffffffff82111561167c5761167c61161f565b5060051b60200190565b600082601f83011261169757600080fd5b813560206116a482611662565b6040516116b18282611635565b83815260059390931b85018201928281019150868411156116d157600080fd5b8286015b848110156116ec57803583529183019183016116d5565b509695505050505050565b600082601f83011261170857600080fd5b813567ffffffffffffffff8111156117225761172261161f565b604051611739601f8301601f191660200182611635565b81815284602083860101111561174e57600080fd5b816020850160208301376000918101602001919091529392505050565b600080600080600060a0868803121561178357600080fd5b61178c8661152a565b945061179a6020870161152a565b9350604086013567ffffffffffffffff808211156117b757600080fd5b6117c389838a01611686565b945060608801359150808211156117d957600080fd5b6117e589838a01611686565b935060808801359150808211156117fb57600080fd5b50611808888289016116f7565b9150509295509295909350565b6000806040838503121561182857600080fd5b823591506118386020840161152a565b90509250929050565b6000806040838503121561185457600080fd5b823567ffffffffffffffff8082111561186c57600080fd5b818501915085601f83011261188057600080fd5b8135602061188d82611662565b60405161189a8282611635565b83815260059390931b85018201928281019150898411156118ba57600080fd5b948201945b838610156118df576118d08661152a565b825294820194908201906118bf565b965050860135925050808211156118f557600080fd5b5061190285828601611686565b9150509250929050565b600081518084526020808501945080840160005b8381101561193c57815187529582019590820190600101611920565b509495945050505050565b602081526000611523602083018461190c565b60006020828403121561196c57600080fd5b6115238261152a565b6000806000806080858703121561198b57600080fd5b6119948561152a565b93506020850135925060408501359150606085013567ffffffffffffffff8111156119be57600080fd5b6119ca878288016116f7565b91505092959194509250565b600080604083850312156119e957600080fd5b6119f28361152a565b915060208301358015158114611a0757600080fd5b809150509250929050565b60008060408385031215611a2557600080fd5b611a2e8361152a565b91506118386020840161152a565b600080600080600060a08688031215611a5457600080fd5b611a5d8661152a565b9450611a6b6020870161152a565b93506040860135925060608601359150608086013567ffffffffffffffff811115611a9557600080fd5b611808888289016116f7565b600181811c90821680611ab557607f821691505b602082108103611ad557634e487b7160e01b600052602260045260246000fd5b50919050565b8054600090600181811c9080831680611af557607f831692505b60208084108203611b1657634e487b7160e01b600052602260045260246000fd5b818015611b2a5760018114611b3f57611b6c565b60ff1986168952841515850289019650611b6c565b60008881526020902060005b86811015611b645781548b820152908501908301611b4b565b505084890196505b50505050505092915050565b6000611b848285611adb565b8351611b948183602088016115bc565b64173539b7b760d91b9101908152600501949350505050565b6020808252602e908201527f455243313135353a2063616c6c6572206973206e6f7420746f6b656e206f776e60408201526d195c881bdc88185c1c1c9bdd995960921b606082015260800190565b634e487b7160e01b600052603260045260246000fd5b634e487b7160e01b600052601160045260246000fd5b600060018201611c3957611c39611c11565b5060010190565b828152604060208201526000611c5960408301846115e0565b949350505050565b6000611c6d8284611adb565b6c31b7b73a3930b1ba173539b7b760991b8152600d019392505050565b60208082526025908201527f455243313135353a207472616e7366657220746f20746865207a65726f206164604082015264647265737360d81b606082015260800190565b6020808252602a908201527f455243313135353a20696e73756666696369656e742062616c616e636520666f60408201526939103a3930b739b332b960b11b606082015260800190565b808201808211156103d4576103d4611c11565b604081526000611d3f604083018561190c565b8281036020840152611d51818561190c565b95945050505050565b6001600160a01b0386811682528516602082015260a060408201819052600090611d869083018661190c565b8281036060840152611d98818661190c565b90508281036080840152611dac81856115e0565b98975050505050505050565b600060208284031215611dca57600080fd5b815161152381611570565b600060033d1115611dee5760046000803e5060005160e01c5b90565b600060443d1015611dff5790565b6040516003193d81016004833e81513d67ffffffffffffffff8160248401118184111715611e2f57505050505090565b8285019150815181811115611e475750505050505090565b843d8701016020828501011115611e615750505050505090565b611e7060208286010187611635565b509095945050505050565b60208082526028908201527f455243313135353a204552433131353552656365697665722072656a656374656040820152676420746f6b656e7360c01b606082015260800190565b7f416363657373436f6e74726f6c3a206163636f756e7420000000000000000000815260008351611efb8160178501602088016115bc565b7001034b99036b4b9b9b4b733903937b6329607d1b6017918401918201528351611f2c8160288401602088016115bc565b01602801949350505050565b6001600160a01b03868116825285166020820152604081018490526060810183905260a060808201819052600090611f72908301846115e0565b979650505050505050565b80820281158282048414176103d4576103d4611c11565b600081611fa357611fa3611c11565b50600019019056fe9f2df0fed2c77648de5860a4cc508cd0818c85b8b8a1ab4ceeef8d981c8956a6a264697066735822122093154d207293ba3c175f8bf35771e114a51b0757f25114424ef147f30dcb1a5d64736f6c63430008110033",
    "linkReferences": {}
  },
  "methodIdentifiers": {
    "DEFAULT_ADMIN_ROLE()": "a217fddf",
    "MINTER_ROLE()": "d5391393",
    "addAdminRole(address)": "6595171c",
    "addMinterRole(address)": "adbf3776",
    "balanceOf(address,uint256)": "00fdd58e",
    "balanceOfBatch(address[],uint256[])": "4e1273f4",
    "base_uri()": "786f2910",
    "contractURI()": "e8a3d485",
    "getRoleAdmin(bytes32)": "248a9ca3",
    "grantRole(bytes32,address)": "2f2ff15d",
    "hasRole(bytes32,address)": "91d14854",
    "isApprovedForAll(address,address)": "e985e9c5",
    "mint(address,uint256,uint256,bytes)": "731133e9",
    "removeAdminRole(address)": "dccfe310",
    "removeMinterRole(address)": "54f1e126",
    "renounceRole(bytes32,address)": "36568abe",
    "revokeRole(bytes32,address)": "d547741f",
    "safeBatchTransferFrom(address,address,uint256[],uint256[],bytes)": "2eb2c2d6",
    "safeTransferFrom(address,address,uint256,uint256,bytes)": "f242432a",
    "setApprovalForAll(address,bool)": "a22cb465",
    "supportsInterface(bytes4)": "01ffc9a7",
    "uri(uint256)": "0e89341c"
  },
  "id": 34
}