{
  "abi": [
    {
      "inputs": [
        {
          "internalType": "address",
          "name": "_nftContract",
          "type": "address"
        },
        {
          "internalType": "uint256",
          "name": "_id_count",
          "type": "uint256"
        }
      ],
      "stateMutability": "nonpayable",
      "type": "constructor"
    },
    {
      "anonymous": false,
      "inputs": [
        {
          "indexed": false,
          "internalType": "uint256",
          "name": "adminSecret",
          "type": "uint256"
        }
      ],
      "name": "Reveal",
      "type": "event"
    },
    {
      "anonymous": false,
      "inputs": [
        {
          "indexed": true,
          "internalType": "bytes32",
          "name": "role",
          "type": "bytes32"
        },
        {
          "indexed": true,
          "internalType": "bytes32",
          "name": "previousAdminRole",
          "type": "bytes32"
        },
        {
          "indexed": true,
          "internalType": "bytes32",
          "name": "newAdminRole",
          "type": "bytes32"
        }
      ],
      "name": "RoleAdminChanged",
      "type": "event"
    },
    {
      "anonymous": false,
      "inputs": [
        {
          "indexed": true,
          "internalType": "bytes32",
          "name": "role",
          "type": "bytes32"
        },
        {
          "indexed": true,
          "internalType": "address",
          "name": "account",
          "type": "address"
        },
        {
          "indexed": true,
          "internalType": "address",
          "name": "sender",
          "type": "address"
        }
      ],
      "name": "RoleGranted",
      "type": "event"
    },
    {
      "anonymous": false,
      "inputs": [
        {
          "indexed": true,
          "internalType": "bytes32",
          "name": "role",
          "type": "bytes32"
        },
        {
          "indexed": true,
          "internalType": "address",
          "name": "account",
          "type": "address"
        },
        {
          "indexed": true,
          "internalType": "address",
          "name": "sender",
          "type": "address"
        }
      ],
      "name": "RoleRevoked",
      "type": "event"
    },
    {
      "anonymous": false,
      "inputs": [
        {
          "indexed": false,
          "internalType": "uint256",
          "name": "revealBlock",
          "type": "uint256"
        },
        {
          "indexed": false,
          "internalType": "uint256",
          "name": "nftPrice",
          "type": "uint256"
        },
        {
          "indexed": false,
          "internalType": "bytes32",
          "name": "hashOfCommitment",
          "type": "bytes32"
        }
      ],
      "name": "Setup",
      "type": "event"
    },
    {
      "anonymous": false,
      "inputs": [
        {
          "indexed": true,
          "internalType": "address",
          "name": "user",
          "type": "address"
        }
      ],
      "name": "UserCommit",
      "type": "event"
    },
    {
      "anonymous": false,
      "inputs": [
        {
          "indexed": true,
          "internalType": "address",
          "name": "user",
          "type": "address"
        },
        {
          "indexed": true,
          "internalType": "uint256",
          "name": "nftId",
          "type": "uint256"
        }
      ],
      "name": "UserMint",
      "type": "event"
    },
    {
      "inputs": [],
      "name": "DEFAULT_ADMIN_ROLE",
      "outputs": [
        {
          "internalType": "bytes32",
          "name": "",
          "type": "bytes32"
        }
      ],
      "stateMutability": "view",
      "type": "function"
    },
    {
      "inputs": [
        {
          "internalType": "uint256",
          "name": "_randomNumber",
          "type": "uint256"
        }
      ],
      "name": "_calculateHash",
      "outputs": [
        {
          "internalType": "bytes32",
          "name": "",
          "type": "bytes32"
        }
      ],
      "stateMutability": "pure",
      "type": "function"
    },
    {
      "inputs": [
        {
          "internalType": "address",
          "name": "account",
          "type": "address"
        }
      ],
      "name": "addAdminRole",
      "outputs": [],
      "stateMutability": "nonpayable",
      "type": "function"
    },
    {
      "inputs": [
        {
          "internalType": "uint256",
          "name": "_adminSecret",
          "type": "uint256"
        }
      ],
      "name": "adminReveal",
      "outputs": [],
      "stateMutability": "nonpayable",
      "type": "function"
    },
    {
      "inputs": [],
      "name": "adminSecret",
      "outputs": [
        {
          "internalType": "uint256",
          "name": "",
          "type": "uint256"
        }
      ],
      "stateMutability": "view",
      "type": "function"
    },
    {
      "inputs": [
        {
          "internalType": "uint256",
          "name": "_revealBlock",
          "type": "uint256"
        },
        {
          "internalType": "uint256",
          "name": "_nftPrice",
          "type": "uint256"
        },
        {
          "internalType": "bytes32",
          "name": "_hashOfCommitment",
          "type": "bytes32"
        }
      ],
      "name": "adminSetup",
      "outputs": [],
      "stateMutability": "nonpayable",
      "type": "function"
    },
    {
      "inputs": [
        {
          "internalType": "bytes32",
          "name": "role",
          "type": "bytes32"
        }
      ],
      "name": "getRoleAdmin",
      "outputs": [
        {
          "internalType": "bytes32",
          "name": "",
          "type": "bytes32"
        }
      ],
      "stateMutability": "view",
      "type": "function"
    },
    {
      "inputs": [
        {
          "internalType": "bytes32",
          "name": "role",
          "type": "bytes32"
        },
        {
          "internalType": "address",
          "name": "account",
          "type": "address"
        }
      ],
      "name": "grantRole",
      "outputs": [],
      "stateMutability": "nonpayable",
      "type": "function"
    },
    {
      "inputs": [
        {
          "internalType": "address",
          "name": "",
          "type": "address"
        }
      ],
      "name": "hasCommitted",
      "outputs": [
        {
          "internalType": "bool",
          "name": "",
          "type": "bool"
        }
      ],
      "stateMutability": "view",
      "type": "function"
    },
    {
      "inputs": [
        {
          "internalType": "address",
          "name": "",
          "type": "address"
        }
      ],
      "name": "hasMinted",
      "outputs": [
        {
          "internalType": "bool",
          "name": "",
          "type": "bool"
        }
      ],
      "stateMutability": "view",
      "type": "function"
    },
    {
      "inputs": [
        {
          "internalType": "bytes32",
          "name": "role",
          "type": "bytes32"
        },
        {
          "internalType": "address",
          "name": "account",
          "type": "address"
        }
      ],
      "name": "hasRole",
      "outputs": [
        {
          "internalType": "bool",
          "name": "",
          "type": "bool"
        }
      ],
      "stateMutability": "view",
      "type": "function"
    },
    {
      "inputs": [],
      "name": "hashOfCommitment",
      "outputs": [
        {
          "internalType": "bytes32",
          "name": "",
          "type": "bytes32"
        }
      ],
      "stateMutability": "view",
      "type": "function"
    },
    {
      "inputs": [],
      "name": "id_count",
      "outputs": [
        {
          "internalType": "uint256",
          "name": "",
          "type": "uint256"
        }
      ],
      "stateMutability": "view",
      "type": "function"
    },
    {
      "inputs": [],
      "name": "isSetup",
      "outputs": [
        {
          "internalType": "bool",
          "name": "",
          "type": "bool"
        }
      ],
      "stateMutability": "view",
      "type": "function"
    },
    {
      "inputs": [],
      "name": "nftContract",
      "outputs": [
        {
          "internalType": "contract GameNFT",
          "name": "",
          "type": "address"
        }
      ],
      "stateMutability": "view",
      "type": "function"
    },
    {
      "inputs": [],
      "name": "nftPrice",
      "outputs": [
        {
          "internalType": "uint256",
          "name": "",
          "type": "uint256"
        }
      ],
      "stateMutability": "view",
      "type": "function"
    },
    {
      "inputs": [
        {
          "internalType": "address",
          "name": "account",
          "type": "address"
        }
      ],
      "name": "removeAdminRole",
      "outputs": [],
      "stateMutability": "nonpayable",
      "type": "function"
    },
    {
      "inputs": [
        {
          "internalType": "bytes32",
          "name": "role",
          "type": "bytes32"
        },
        {
          "internalType": "address",
          "name": "account",
          "type": "address"
        }
      ],
      "name": "renounceRole",
      "outputs": [],
      "stateMutability": "nonpayable",
      "type": "function"
    },
    {
      "inputs": [],
      "name": "revealBlock",
      "outputs": [
        {
          "internalType": "uint256",
          "name": "",
          "type": "uint256"
        }
      ],
      "stateMutability": "view",
      "type": "function"
    },
    {
      "inputs": [
        {
          "internalType": "bytes32",
          "name": "role",
          "type": "bytes32"
        },
        {
          "internalType": "address",
          "name": "account",
          "type": "address"
        }
      ],
      "name": "revokeRole",
      "outputs": [],
      "stateMutability": "nonpayable",
      "type": "function"
    },
    {
      "inputs": [
        {
          "internalType": "bytes4",
          "name": "interfaceId",
          "type": "bytes4"
        }
      ],
      "name": "supportsInterface",
      "outputs": [
        {
          "internalType": "bool",
          "name": "",
          "type": "bool"
        }
      ],
      "stateMutability": "view",
      "type": "function"
    },
    {
      "inputs": [],
      "name": "userCommit",
      "outputs": [],
      "stateMutability": "payable",
      "type": "function"
    },
    {
      "inputs": [],
      "name": "userMint",
      "outputs": [
        {
          "internalType": "uint256",
          "name": "",
          "type": "uint256"
        }
      ],
      "stateMutability": "nonpayable",
      "type": "function"
    },
    {
      "inputs": [
        {
          "internalType": "address payable",
          "name": "recipient",
          "type": "address"
        },
        {
          "internalType": "uint256",
          "name": "amount",
          "type": "uint256"
        }
      ],
      "name": "withdrawFunds",
      "outputs": [],
      "stateMutability": "nonpayable",
      "type": "function"
    }
  ],
  "bytecode": {
    "object": "0x60806040526003805460ff191690556000600581905560075534801561002457600080fd5b50604051620014eb380380620014eb83398101604081905261004591610125565b610050600033610079565b600180546001600160a01b0319166001600160a01b03939093169290921790915560025561015f565b6100838282610087565b5050565b6000828152602081815260408083206001600160a01b038516845290915290205460ff16610083576000828152602081815260408083206001600160a01b03851684529091529020805460ff191660011790556100e13390565b6001600160a01b0316816001600160a01b0316837f2f8788117e7eff1d82e926ec794901d17c78024a50270940304540a733656f0d60405160405180910390a45050565b6000806040838503121561013857600080fd5b82516001600160a01b038116811461014f57600080fd5b6020939093015192949293505050565b61137c806200016f6000396000f3fe60806040526004361061014b5760003560e01c8063821f5fa7116100b6578063c6dbe15a1161006f578063c6dbe15a14610384578063d547741f146103b4578063d56d229d146103d4578063dccfe3101461040c578063de13224f1461042c578063df8f460f1461044257600080fd5b8063821f5fa7146102fb57806391d1485414610311578063a217fddf14610331578063a818f9a314610346578063b0f72b4e1461035c578063c10753291461036457600080fd5b806338e21cce1161010857806338e21cce1461023b57806359cadd8d1461026b5780636595171c1461028b578063665d6070146102ab57806366bb81c7146102cb57806378600a4f146102e157600080fd5b806301ffc9a7146101505780630d39fc81146101855780631f79339d146101a9578063248a9ca3146101cb5780632f2ff15d146101fb57806336568abe1461021b575b600080fd5b34801561015c57600080fd5b5061017061016b366004611050565b610457565b60405190151581526020015b60405180910390f35b34801561019157600080fd5b5061019b60055481565b60405190815260200161017c565b3480156101b557600080fd5b506101c96101c436600461107a565b61048e565b005b3480156101d757600080fd5b5061019b6101e63660046110a6565b60009081526020819052604090206001015490565b34801561020757600080fd5b506101c96102163660046110d4565b6105ae565b34801561022757600080fd5b506101c96102363660046110d4565b6105d8565b34801561024757600080fd5b50610170610256366004611104565b60096020526000908152604090205460ff1681565b34801561027757600080fd5b506101c96102863660046110a6565b610656565b34801561029757600080fd5b506101c96102a6366004611104565b6107bd565b3480156102b757600080fd5b5061019b6102c63660046110a6565b6107d3565b3480156102d757600080fd5b5061019b60045481565b3480156102ed57600080fd5b506003546101709060ff1681565b34801561030757600080fd5b5061019b60025481565b34801561031d57600080fd5b5061017061032c3660046110d4565b61080d565b34801561033d57600080fd5b5061019b600081565b34801561035257600080fd5b5061019b60075481565b6101c9610836565b34801561037057600080fd5b506101c961037f366004611121565b61099c565b34801561039057600080fd5b5061017061039f366004611104565b60086020526000908152604090205460ff1681565b3480156103c057600080fd5b506101c96103cf3660046110d4565b610a05565b3480156103e057600080fd5b506001546103f4906001600160a01b031681565b6040516001600160a01b03909116815260200161017c565b34801561041857600080fd5b506101c9610427366004611104565b610a2a565b34801561043857600080fd5b5061019b60065481565b34801561044e57600080fd5b5061019b610aa9565b60006001600160e01b03198216637965db0b60e01b148061048857506301ffc9a760e01b6001600160e01b03198316145b92915050565b600061049981610d4c565b60035460ff16156104f15760405162461bcd60e51b815260206004820152601960248201527f436f6e747261637420697320616c72656164792073657475700000000000000060448201526064015b60405180910390fd5b43841161054b5760405162461bcd60e51b815260206004820152602260248201527f52657665616c20626c6f636b206d75737420626520696e207468652066757475604482015261726560f01b60648201526084016104e8565b6004849055600583905560068290556003805460ff1916600117905560408051858152602081018590529081018390527feba1874a1f968cd39574afac65ac3dc0ea0f334e73ffd7b27a38e2a3f25b0ce09060600160405180910390a150505050565b6000828152602081905260409020600101546105c981610d4c565b6105d38383610d59565b505050565b6001600160a01b03811633146106485760405162461bcd60e51b815260206004820152602f60248201527f416363657373436f6e74726f6c3a2063616e206f6e6c792072656e6f756e636560448201526e103937b632b9903337b91039b2b63360891b60648201526084016104e8565b6106528282610ddd565b5050565b600061066181610d4c565b60035460ff166106835760405162461bcd60e51b81526004016104e89061114d565b6004544310156106d55760405162461bcd60e51b815260206004820152601f60248201527f52657665616c20626c6f636b20686173206e6f7420706173736564207965740060448201526064016104e8565b600754156107355760405162461bcd60e51b815260206004820152602760248201527f41646d696e2068617320616c72656164792072657665616c6564207468656972604482015266081cd958dc995d60ca1b60648201526084016104e8565b600654610741836107d3565b146107815760405162461bcd60e51b815260206004820152601060248201526f125b98dbdc9c9958dd081cd958dc995d60821b60448201526064016104e8565b60078290556040518281527f1747b48b6ade85d7dc97c0f523e0e780795930a468c01b18a51546791fdd3ac09060200160405180910390a15050565b60006107c881610d4c565b6106526000836105ae565b60008082116107e4576107e461117c565b604080516020810184905201604051602081830303815290604052805190602001209050919050565b6000918252602082815260408084206001600160a01b0393909316845291905290205460ff1690565b60035460ff166108585760405162461bcd60e51b81526004016104e89061114d565b60045443106108a95760405162461bcd60e51b815260206004820152601f60248201527f52657665616c20626c6f636b2068617320616c7265616479207061737365640060448201526064016104e8565b3360009081526008602052604090205460ff16156109095760405162461bcd60e51b815260206004820152601a60248201527f557365722068617320616c726561647920636f6d6d697474656400000000000060448201526064016104e8565b600554341461095a5760405162461bcd60e51b815260206004820152601e60248201527f496e636f727265637420616d6f756e74206f66204d415449432073656e74000060448201526064016104e8565b33600081815260086020526040808220805460ff19166001179055517f373f7faaa3899d0514a8849ae1f82d097e14c9506b05684ba44edd7b2053d2919190a2565b60006109a781610d4c565b6000600754116109c95760405162461bcd60e51b81526004016104e890611192565b6040516001600160a01b0384169083156108fc029084906000818181858888f193505050501580156109ff573d6000803e3d6000fd5b50505050565b600082815260208190526040902060010154610a2081610d4c565b6105d38383610ddd565b6000610a3581610d4c565b336001600160a01b03831603610a9e5760405162461bcd60e51b815260206004820152602860248201527f43616e6e6f74207265766f6b65206f6e6573656c662066726f6d20616e2061646044820152676d696e20726f6c6560c01b60648201526084016104e8565b610652600083610a05565b60035460009060ff16610ace5760405162461bcd60e51b81526004016104e89061114d565b600454431015610b205760405162461bcd60e51b815260206004820152601f60248201527f52657665616c20626c6f636b20686173206e6f7420706173736564207965740060448201526064016104e8565b3360009081526008602052604090205460ff16610b785760405162461bcd60e51b8152602060048201526016602482015275155cd95c881a185cc81b9bdd0818dbdb5b5a5d1d195960521b60448201526064016104e8565b600060075411610b9a5760405162461bcd60e51b81526004016104e890611192565b3360009081526009602052604090205460ff1615610bfa5760405162461bcd60e51b815260206004820152601760248201527f557365722068617320616c7265616479206d696e74656400000000000000000060448201526064016104e8565b6000600254610c063390565b60075460405160609290921b6bffffffffffffffffffffffff1916602083015260348201526054016040516020818303038152906040528051906020012060001c610c5191906111d5565b6001549091506001600160a01b031663731133e9336040516001600160e01b031960e084901b1681526001600160a01b0390911660048201526024810184905260016044820152608060648201526000608482015260a401600060405180830381600087803b158015610cc357600080fd5b505af1158015610cd7573d6000803e3d6000fd5b50505050600160096000610ce83390565b6001600160a01b031681526020810191909152604001600020805460ff191691151591909117905580336001600160a01b03167f8c80e39467b3d2cf380d4c184ffaa87910545ce14ae1e067934ac4f2520f6d6360405160405180910390a3919050565b610d568133610e42565b50565b610d63828261080d565b610652576000828152602081815260408083206001600160a01b03851684529091529020805460ff19166001179055610d993390565b6001600160a01b0316816001600160a01b0316837f2f8788117e7eff1d82e926ec794901d17c78024a50270940304540a733656f0d60405160405180910390a45050565b610de7828261080d565b15610652576000828152602081815260408083206001600160a01b0385168085529252808320805460ff1916905551339285917ff6391f5c32d9c69d2a47ea670b442974b53935d1edc7fd64eb21e047a839171b9190a45050565b610e4c828261080d565b61065257610e5981610e9b565b610e64836020610ead565b604051602001610e7592919061121b565b60408051601f198184030181529082905262461bcd60e51b82526104e891600401611290565b60606104886001600160a01b03831660145b60606000610ebc8360026112d9565b610ec79060026112f0565b67ffffffffffffffff811115610edf57610edf611303565b6040519080825280601f01601f191660200182016040528015610f09576020820181803683370190505b509050600360fc1b81600081518110610f2457610f24611319565b60200101906001600160f81b031916908160001a905350600f60fb1b81600181518110610f5357610f53611319565b60200101906001600160f81b031916908160001a9053506000610f778460026112d9565b610f829060016112f0565b90505b6001811115610ffa576f181899199a1a9b1b9c1cb0b131b232b360811b85600f1660108110610fb657610fb6611319565b1a60f81b828281518110610fcc57610fcc611319565b60200101906001600160f81b031916908160001a90535060049490941c93610ff38161132f565b9050610f85565b5083156110495760405162461bcd60e51b815260206004820181905260248201527f537472696e67733a20686578206c656e67746820696e73756666696369656e7460448201526064016104e8565b9392505050565b60006020828403121561106257600080fd5b81356001600160e01b03198116811461104957600080fd5b60008060006060848603121561108f57600080fd5b505081359360208301359350604090920135919050565b6000602082840312156110b857600080fd5b5035919050565b6001600160a01b0381168114610d5657600080fd5b600080604083850312156110e757600080fd5b8235915060208301356110f9816110bf565b809150509250929050565b60006020828403121561111657600080fd5b8135611049816110bf565b6000806040838503121561113457600080fd5b823561113f816110bf565b946020939093013593505050565b6020808252601590820152740436f6e7472616374206973206e6f7420736574757605c1b604082015260600190565b634e487b7160e01b600052600160045260246000fd5b60208082526023908201527f41646d696e20686173206e6f742072657665616c6564207468656972207365636040820152621c995d60ea1b606082015260800190565b6000826111f257634e487b7160e01b600052601260045260246000fd5b500690565b60005b838110156112125781810151838201526020016111fa565b50506000910152565b7f416363657373436f6e74726f6c3a206163636f756e74200000000000000000008152600083516112538160178501602088016111f7565b7001034b99036b4b9b9b4b733903937b6329607d1b60179184019182015283516112848160288401602088016111f7565b01602801949350505050565b60208152600082518060208401526112af8160408501602087016111f7565b601f01601f19169190910160400192915050565b634e487b7160e01b600052601160045260246000fd5b8082028115828204841417610488576104886112c3565b80820180821115610488576104886112c3565b634e487b7160e01b600052604160045260246000fd5b634e487b7160e01b600052603260045260246000fd5b60008161133e5761133e6112c3565b50600019019056fea2646970667358221220ca286ea6e2b9132167312c7a9e9eaa40b3df62e0be3d1b5fd253267612db17fe64736f6c63430008110033",
    "linkReferences": {}
  },
  "methodIdentifiers": {
    "DEFAULT_ADMIN_ROLE()": "a217fddf",
    "_calculateHash(uint256)": "665d6070",
    "addAdminRole(address)": "6595171c",
    "adminReveal(uint256)": "59cadd8d",
    "adminSecret()": "a818f9a3",
    "adminSetup(uint256,uint256,bytes32)": "1f79339d",
    "getRoleAdmin(bytes32)": "248a9ca3",
    "grantRole(bytes32,address)": "2f2ff15d",
    "hasCommitted(address)": "c6dbe15a",
    "hasMinted(address)": "38e21cce",
    "hasRole(bytes32,address)": "91d14854",
    "hashOfCommitment()": "de13224f",
    "id_count()": "821f5fa7",
    "isSetup()": "78600a4f",
    "nftContract()": "d56d229d",
    "nftPrice()": "0d39fc81",
    "removeAdminRole(address)": "dccfe310",
    "renounceRole(bytes32,address)": "36568abe",
    "revealBlock()": "66bb81c7",
    "revokeRole(bytes32,address)": "d547741f",
    "supportsInterface(bytes4)": "01ffc9a7",
    "userCommit()": "b0f72b4e",
    "userMint()": "df8f460f",
    "withdrawFunds(address,uint256)": "c1075329"
  },
  "id": 33
}