{
  "abi": [
    {
      "inputs": [
        {
          "internalType": "address",
          "name": "_nftContract",
          "type": "address"
        }
      ],
      "stateMutability": "nonpayable",
      "type": "constructor"
    },
    {
      "anonymous": false,
      "inputs": [
        {
          "indexed": false,
          "internalType": "uint256",
          "name": "adminSecret",
          "type": "uint256"
        }
      ],
      "name": "Reveal",
      "type": "event"
    },
    {
      "anonymous": false,
      "inputs": [
        {
          "indexed": true,
          "internalType": "bytes32",
          "name": "role",
          "type": "bytes32"
        },
        {
          "indexed": true,
          "internalType": "bytes32",
          "name": "previousAdminRole",
          "type": "bytes32"
        },
        {
          "indexed": true,
          "internalType": "bytes32",
          "name": "newAdminRole",
          "type": "bytes32"
        }
      ],
      "name": "RoleAdminChanged",
      "type": "event"
    },
    {
      "anonymous": false,
      "inputs": [
        {
          "indexed": true,
          "internalType": "bytes32",
          "name": "role",
          "type": "bytes32"
        },
        {
          "indexed": true,
          "internalType": "address",
          "name": "account",
          "type": "address"
        },
        {
          "indexed": true,
          "internalType": "address",
          "name": "sender",
          "type": "address"
        }
      ],
      "name": "RoleGranted",
      "type": "event"
    },
    {
      "anonymous": false,
      "inputs": [
        {
          "indexed": true,
          "internalType": "bytes32",
          "name": "role",
          "type": "bytes32"
        },
        {
          "indexed": true,
          "internalType": "address",
          "name": "account",
          "type": "address"
        },
        {
          "indexed": true,
          "internalType": "address",
          "name": "sender",
          "type": "address"
        }
      ],
      "name": "RoleRevoked",
      "type": "event"
    },
    {
      "anonymous": false,
      "inputs": [
        {
          "indexed": false,
          "internalType": "uint256",
          "name": "revealBlock",
          "type": "uint256"
        },
        {
          "indexed": false,
          "internalType": "uint256",
          "name": "nftPrice",
          "type": "uint256"
        },
        {
          "indexed": false,
          "internalType": "bytes32",
          "name": "hashOfCommitment",
          "type": "bytes32"
        }
      ],
      "name": "Setup",
      "type": "event"
    },
    {
      "anonymous": false,
      "inputs": [
        {
          "indexed": true,
          "internalType": "address",
          "name": "user",
          "type": "address"
        }
      ],
      "name": "UserCommit",
      "type": "event"
    },
    {
      "anonymous": false,
      "inputs": [
        {
          "indexed": true,
          "internalType": "address",
          "name": "user",
          "type": "address"
        },
        {
          "indexed": true,
          "internalType": "uint256",
          "name": "nftId",
          "type": "uint256"
        }
      ],
      "name": "UserMint",
      "type": "event"
    },
    {
      "inputs": [],
      "name": "DEFAULT_ADMIN_ROLE",
      "outputs": [
        {
          "internalType": "bytes32",
          "name": "",
          "type": "bytes32"
        }
      ],
      "stateMutability": "view",
      "type": "function"
    },
    {
      "inputs": [],
      "name": "ID_COUNT",
      "outputs": [
        {
          "internalType": "uint256",
          "name": "",
          "type": "uint256"
        }
      ],
      "stateMutability": "view",
      "type": "function"
    },
    {
      "inputs": [
        {
          "internalType": "uint256",
          "name": "_randomNumber",
          "type": "uint256"
        }
      ],
      "name": "_calculateHash",
      "outputs": [
        {
          "internalType": "bytes32",
          "name": "",
          "type": "bytes32"
        }
      ],
      "stateMutability": "pure",
      "type": "function"
    },
    {
      "inputs": [
        {
          "internalType": "address",
          "name": "account",
          "type": "address"
        }
      ],
      "name": "addAdminRole",
      "outputs": [],
      "stateMutability": "nonpayable",
      "type": "function"
    },
    {
      "inputs": [
        {
          "internalType": "uint256",
          "name": "_adminSecret",
          "type": "uint256"
        }
      ],
      "name": "adminReveal",
      "outputs": [],
      "stateMutability": "nonpayable",
      "type": "function"
    },
    {
      "inputs": [],
      "name": "adminSecret",
      "outputs": [
        {
          "internalType": "uint256",
          "name": "",
          "type": "uint256"
        }
      ],
      "stateMutability": "view",
      "type": "function"
    },
    {
      "inputs": [
        {
          "internalType": "uint256",
          "name": "_revealBlock",
          "type": "uint256"
        },
        {
          "internalType": "uint256",
          "name": "_nftPrice",
          "type": "uint256"
        },
        {
          "internalType": "bytes32",
          "name": "_hashOfCommitment",
          "type": "bytes32"
        }
      ],
      "name": "adminSetup",
      "outputs": [],
      "stateMutability": "nonpayable",
      "type": "function"
    },
    {
      "inputs": [
        {
          "internalType": "bytes32",
          "name": "role",
          "type": "bytes32"
        }
      ],
      "name": "getRoleAdmin",
      "outputs": [
        {
          "internalType": "bytes32",
          "name": "",
          "type": "bytes32"
        }
      ],
      "stateMutability": "view",
      "type": "function"
    },
    {
      "inputs": [
        {
          "internalType": "bytes32",
          "name": "role",
          "type": "bytes32"
        },
        {
          "internalType": "address",
          "name": "account",
          "type": "address"
        }
      ],
      "name": "grantRole",
      "outputs": [],
      "stateMutability": "nonpayable",
      "type": "function"
    },
    {
      "inputs": [
        {
          "internalType": "address",
          "name": "",
          "type": "address"
        }
      ],
      "name": "hasCommitted",
      "outputs": [
        {
          "internalType": "bool",
          "name": "",
          "type": "bool"
        }
      ],
      "stateMutability": "view",
      "type": "function"
    },
    {
      "inputs": [
        {
          "internalType": "address",
          "name": "",
          "type": "address"
        }
      ],
      "name": "hasMinted",
      "outputs": [
        {
          "internalType": "bool",
          "name": "",
          "type": "bool"
        }
      ],
      "stateMutability": "view",
      "type": "function"
    },
    {
      "inputs": [
        {
          "internalType": "bytes32",
          "name": "role",
          "type": "bytes32"
        },
        {
          "internalType": "address",
          "name": "account",
          "type": "address"
        }
      ],
      "name": "hasRole",
      "outputs": [
        {
          "internalType": "bool",
          "name": "",
          "type": "bool"
        }
      ],
      "stateMutability": "view",
      "type": "function"
    },
    {
      "inputs": [],
      "name": "hashOfCommitment",
      "outputs": [
        {
          "internalType": "bytes32",
          "name": "",
          "type": "bytes32"
        }
      ],
      "stateMutability": "view",
      "type": "function"
    },
    {
      "inputs": [],
      "name": "isSetup",
      "outputs": [
        {
          "internalType": "bool",
          "name": "",
          "type": "bool"
        }
      ],
      "stateMutability": "view",
      "type": "function"
    },
    {
      "inputs": [],
      "name": "nftContract",
      "outputs": [
        {
          "internalType": "contract GameNFT",
          "name": "",
          "type": "address"
        }
      ],
      "stateMutability": "view",
      "type": "function"
    },
    {
      "inputs": [],
      "name": "nftPrice",
      "outputs": [
        {
          "internalType": "uint256",
          "name": "",
          "type": "uint256"
        }
      ],
      "stateMutability": "view",
      "type": "function"
    },
    {
      "inputs": [
        {
          "internalType": "address",
          "name": "account",
          "type": "address"
        }
      ],
      "name": "removeAdminRole",
      "outputs": [],
      "stateMutability": "nonpayable",
      "type": "function"
    },
    {
      "inputs": [
        {
          "internalType": "bytes32",
          "name": "role",
          "type": "bytes32"
        },
        {
          "internalType": "address",
          "name": "account",
          "type": "address"
        }
      ],
      "name": "renounceRole",
      "outputs": [],
      "stateMutability": "nonpayable",
      "type": "function"
    },
    {
      "inputs": [],
      "name": "revealBlock",
      "outputs": [
        {
          "internalType": "uint256",
          "name": "",
          "type": "uint256"
        }
      ],
      "stateMutability": "view",
      "type": "function"
    },
    {
      "inputs": [
        {
          "internalType": "bytes32",
          "name": "role",
          "type": "bytes32"
        },
        {
          "internalType": "address",
          "name": "account",
          "type": "address"
        }
      ],
      "name": "revokeRole",
      "outputs": [],
      "stateMutability": "nonpayable",
      "type": "function"
    },
    {
      "inputs": [
        {
          "internalType": "bytes4",
          "name": "interfaceId",
          "type": "bytes4"
        }
      ],
      "name": "supportsInterface",
      "outputs": [
        {
          "internalType": "bool",
          "name": "",
          "type": "bool"
        }
      ],
      "stateMutability": "view",
      "type": "function"
    },
    {
      "inputs": [],
      "name": "userCommit",
      "outputs": [],
      "stateMutability": "payable",
      "type": "function"
    },
    {
      "inputs": [],
      "name": "userMint",
      "outputs": [
        {
          "internalType": "uint256",
          "name": "",
          "type": "uint256"
        }
      ],
      "stateMutability": "nonpayable",
      "type": "function"
    },
    {
      "inputs": [
        {
          "internalType": "address payable",
          "name": "recipient",
          "type": "address"
        },
        {
          "internalType": "uint256",
          "name": "amount",
          "type": "uint256"
        }
      ],
      "name": "withdrawFunds",
      "outputs": [],
      "stateMutability": "nonpayable",
      "type": "function"
    }
  ],
  "bytecode": {
    "object": "0x60806040526001805460ff60a01b191690556000600381905560055534801561002757600080fd5b50604051620015013803806200150183398101604081905261004891610124565b610053600033610078565b600180546001600160a01b0319166001600160a01b0392909216919091179055610154565b6100828282610086565b5050565b6000828152602081815260408083206001600160a01b038516845290915290205460ff16610082576000828152602081815260408083206001600160a01b03851684529091529020805460ff191660011790556100e03390565b6001600160a01b0316816001600160a01b0316837f2f8788117e7eff1d82e926ec794901d17c78024a50270940304540a733656f0d60405160405180910390a45050565b60006020828403121561013657600080fd5b81516001600160a01b038116811461014d57600080fd5b9392505050565b61139d80620001646000396000f3fe60806040526004361061014b5760003560e01c806378600a4f116100b6578063c6dbe15a1161006f578063c6dbe15a1461038a578063d547741f146103ba578063d56d229d146103da578063dccfe31014610412578063de13224f14610432578063df8f460f1461044857600080fd5b806378600a4f146102f657806391d1485414610317578063a217fddf14610337578063a818f9a31461034c578063b0f72b4e14610362578063c10753291461036a57600080fd5b806336568abe1161010857806336568abe1461023057806338e21cce1461025057806359cadd8d146102805780636595171c146102a0578063665d6070146102c057806366bb81c7146102e057600080fd5b806301ffc9a7146101505780630a87aecb146101855780630d39fc81146101a85780631f79339d146101be578063248a9ca3146101e05780632f2ff15d14610210575b600080fd5b34801561015c57600080fd5b5061017061016b366004611071565b61045d565b60405190151581526020015b60405180910390f35b34801561019157600080fd5b5061019a600481565b60405190815260200161017c565b3480156101b457600080fd5b5061019a60035481565b3480156101ca57600080fd5b506101de6101d936600461109b565b610494565b005b3480156101ec57600080fd5b5061019a6101fb3660046110c7565b60009081526020819052604090206001015490565b34801561021c57600080fd5b506101de61022b3660046110f5565b6105c1565b34801561023c57600080fd5b506101de61024b3660046110f5565b6105eb565b34801561025c57600080fd5b5061017061026b366004611125565b60076020526000908152604090205460ff1681565b34801561028c57600080fd5b506101de61029b3660046110c7565b610669565b3480156102ac57600080fd5b506101de6102bb366004611125565b6107d7565b3480156102cc57600080fd5b5061019a6102db3660046110c7565b6107ed565b3480156102ec57600080fd5b5061019a60025481565b34801561030257600080fd5b5060015461017090600160a01b900460ff1681565b34801561032357600080fd5b506101706103323660046110f5565b610827565b34801561034357600080fd5b5061019a600081565b34801561035857600080fd5b5061019a60055481565b6101de610850565b34801561037657600080fd5b506101de610385366004611142565b6109bd565b34801561039657600080fd5b506101706103a5366004611125565b60066020526000908152604090205460ff1681565b3480156103c657600080fd5b506101de6103d53660046110f5565b610a26565b3480156103e657600080fd5b506001546103fa906001600160a01b031681565b6040516001600160a01b03909116815260200161017c565b34801561041e57600080fd5b506101de61042d366004611125565b610a4b565b34801561043e57600080fd5b5061019a60045481565b34801561045457600080fd5b5061019a610aca565b60006001600160e01b03198216637965db0b60e01b148061048e57506301ffc9a760e01b6001600160e01b03198316145b92915050565b600061049f81610d6d565b600154600160a01b900460ff16156104fe5760405162461bcd60e51b815260206004820152601960248201527f436f6e747261637420697320616c72656164792073657475700000000000000060448201526064015b60405180910390fd5b4384116105585760405162461bcd60e51b815260206004820152602260248201527f52657665616c20626c6f636b206d75737420626520696e207468652066757475604482015261726560f01b60648201526084016104f5565b6002849055600383905560048290556001805460ff60a01b1916600160a01b17905560408051858152602081018590529081018390527feba1874a1f968cd39574afac65ac3dc0ea0f334e73ffd7b27a38e2a3f25b0ce09060600160405180910390a150505050565b6000828152602081905260409020600101546105dc81610d6d565b6105e68383610d7a565b505050565b6001600160a01b038116331461065b5760405162461bcd60e51b815260206004820152602f60248201527f416363657373436f6e74726f6c3a2063616e206f6e6c792072656e6f756e636560448201526e103937b632b9903337b91039b2b63360891b60648201526084016104f5565b6106658282610dfe565b5050565b600061067481610d6d565b600154600160a01b900460ff1661069d5760405162461bcd60e51b81526004016104f59061116e565b6002544310156106ef5760405162461bcd60e51b815260206004820152601f60248201527f52657665616c20626c6f636b20686173206e6f7420706173736564207965740060448201526064016104f5565b6005541561074f5760405162461bcd60e51b815260206004820152602760248201527f41646d696e2068617320616c72656164792072657665616c6564207468656972604482015266081cd958dc995d60ca1b60648201526084016104f5565b60045461075b836107ed565b1461079b5760405162461bcd60e51b815260206004820152601060248201526f125b98dbdc9c9958dd081cd958dc995d60821b60448201526064016104f5565b60058290556040518281527f1747b48b6ade85d7dc97c0f523e0e780795930a468c01b18a51546791fdd3ac09060200160405180910390a15050565b60006107e281610d6d565b6106656000836105c1565b60008082116107fe576107fe61119d565b604080516020810184905201604051602081830303815290604052805190602001209050919050565b6000918252602082815260408084206001600160a01b0393909316845291905290205460ff1690565b600154600160a01b900460ff166108795760405162461bcd60e51b81526004016104f59061116e565b60025443106108ca5760405162461bcd60e51b815260206004820152601f60248201527f52657665616c20626c6f636b2068617320616c7265616479207061737365640060448201526064016104f5565b3360009081526006602052604090205460ff161561092a5760405162461bcd60e51b815260206004820152601a60248201527f557365722068617320616c726561647920636f6d6d697474656400000000000060448201526064016104f5565b600354341461097b5760405162461bcd60e51b815260206004820152601e60248201527f496e636f727265637420616d6f756e74206f66204d415449432073656e74000060448201526064016104f5565b33600081815260066020526040808220805460ff19166001179055517f373f7faaa3899d0514a8849ae1f82d097e14c9506b05684ba44edd7b2053d2919190a2565b60006109c881610d6d565b6000600554116109ea5760405162461bcd60e51b81526004016104f5906111b3565b6040516001600160a01b0384169083156108fc029084906000818181858888f19350505050158015610a20573d6000803e3d6000fd5b50505050565b600082815260208190526040902060010154610a4181610d6d565b6105e68383610dfe565b6000610a5681610d6d565b336001600160a01b03831603610abf5760405162461bcd60e51b815260206004820152602860248201527f43616e6e6f74207265766f6b65206f6e6573656c662066726f6d20616e2061646044820152676d696e20726f6c6560c01b60648201526084016104f5565b610665600083610a26565b600154600090600160a01b900460ff16610af65760405162461bcd60e51b81526004016104f59061116e565b600254431015610b485760405162461bcd60e51b815260206004820152601f60248201527f52657665616c20626c6f636b20686173206e6f7420706173736564207965740060448201526064016104f5565b3360009081526006602052604090205460ff16610ba05760405162461bcd60e51b8152602060048201526016602482015275155cd95c881a185cc81b9bdd0818dbdb5b5a5d1d195960521b60448201526064016104f5565b600060055411610bc25760405162461bcd60e51b81526004016104f5906111b3565b3360009081526007602052604090205460ff1615610c225760405162461bcd60e51b815260206004820152601760248201527f557365722068617320616c7265616479206d696e74656400000000000000000060448201526064016104f5565b600060043360055460405160609290921b6bffffffffffffffffffffffff1916602083015260348201526054016040516020818303038152906040528051906020012060001c610c7291906111f6565b6001549091506001600160a01b031663731133e9336040516001600160e01b031960e084901b1681526001600160a01b0390911660048201526024810184905260016044820152608060648201526000608482015260a401600060405180830381600087803b158015610ce457600080fd5b505af1158015610cf8573d6000803e3d6000fd5b50505050600160076000610d093390565b6001600160a01b031681526020810191909152604001600020805460ff191691151591909117905580336001600160a01b03167f8c80e39467b3d2cf380d4c184ffaa87910545ce14ae1e067934ac4f2520f6d6360405160405180910390a3919050565b610d778133610e63565b50565b610d848282610827565b610665576000828152602081815260408083206001600160a01b03851684529091529020805460ff19166001179055610dba3390565b6001600160a01b0316816001600160a01b0316837f2f8788117e7eff1d82e926ec794901d17c78024a50270940304540a733656f0d60405160405180910390a45050565b610e088282610827565b15610665576000828152602081815260408083206001600160a01b0385168085529252808320805460ff1916905551339285917ff6391f5c32d9c69d2a47ea670b442974b53935d1edc7fd64eb21e047a839171b9190a45050565b610e6d8282610827565b61066557610e7a81610ebc565b610e85836020610ece565b604051602001610e9692919061123c565b60408051601f198184030181529082905262461bcd60e51b82526104f5916004016112b1565b606061048e6001600160a01b03831660145b60606000610edd8360026112fa565b610ee8906002611311565b67ffffffffffffffff811115610f0057610f00611324565b6040519080825280601f01601f191660200182016040528015610f2a576020820181803683370190505b509050600360fc1b81600081518110610f4557610f4561133a565b60200101906001600160f81b031916908160001a905350600f60fb1b81600181518110610f7457610f7461133a565b60200101906001600160f81b031916908160001a9053506000610f988460026112fa565b610fa3906001611311565b90505b600181111561101b576f181899199a1a9b1b9c1cb0b131b232b360811b85600f1660108110610fd757610fd761133a565b1a60f81b828281518110610fed57610fed61133a565b60200101906001600160f81b031916908160001a90535060049490941c9361101481611350565b9050610fa6565b50831561106a5760405162461bcd60e51b815260206004820181905260248201527f537472696e67733a20686578206c656e67746820696e73756666696369656e7460448201526064016104f5565b9392505050565b60006020828403121561108357600080fd5b81356001600160e01b03198116811461106a57600080fd5b6000806000606084860312156110b057600080fd5b505081359360208301359350604090920135919050565b6000602082840312156110d957600080fd5b5035919050565b6001600160a01b0381168114610d7757600080fd5b6000806040838503121561110857600080fd5b82359150602083013561111a816110e0565b809150509250929050565b60006020828403121561113757600080fd5b813561106a816110e0565b6000806040838503121561115557600080fd5b8235611160816110e0565b946020939093013593505050565b6020808252601590820152740436f6e7472616374206973206e6f7420736574757605c1b604082015260600190565b634e487b7160e01b600052600160045260246000fd5b60208082526023908201527f41646d696e20686173206e6f742072657665616c6564207468656972207365636040820152621c995d60ea1b606082015260800190565b60008261121357634e487b7160e01b600052601260045260246000fd5b500690565b60005b8381101561123357818101518382015260200161121b565b50506000910152565b7f416363657373436f6e74726f6c3a206163636f756e7420000000000000000000815260008351611274816017850160208801611218565b7001034b99036b4b9b9b4b733903937b6329607d1b60179184019182015283516112a5816028840160208801611218565b01602801949350505050565b60208152600082518060208401526112d0816040850160208701611218565b601f01601f19169190910160400192915050565b634e487b7160e01b600052601160045260246000fd5b808202811582820484141761048e5761048e6112e4565b8082018082111561048e5761048e6112e4565b634e487b7160e01b600052604160045260246000fd5b634e487b7160e01b600052603260045260246000fd5b60008161135f5761135f6112e4565b50600019019056fea264697066735822122017fc80ae4f3f9a94831c1cb8b60b51d6b9525415d589257ca0b15cda4ef3dba664736f6c63430008110033",
    "linkReferences": {}
  },
  "methodIdentifiers": {
    "DEFAULT_ADMIN_ROLE()": "a217fddf",
    "ID_COUNT()": "0a87aecb",
    "_calculateHash(uint256)": "665d6070",
    "addAdminRole(address)": "6595171c",
    "adminReveal(uint256)": "59cadd8d",
    "adminSecret()": "a818f9a3",
    "adminSetup(uint256,uint256,bytes32)": "1f79339d",
    "getRoleAdmin(bytes32)": "248a9ca3",
    "grantRole(bytes32,address)": "2f2ff15d",
    "hasCommitted(address)": "c6dbe15a",
    "hasMinted(address)": "38e21cce",
    "hasRole(bytes32,address)": "91d14854",
    "hashOfCommitment()": "de13224f",
    "isSetup()": "78600a4f",
    "nftContract()": "d56d229d",
    "nftPrice()": "0d39fc81",
    "removeAdminRole(address)": "dccfe310",
    "renounceRole(bytes32,address)": "36568abe",
    "revealBlock()": "66bb81c7",
    "revokeRole(bytes32,address)": "d547741f",
    "supportsInterface(bytes4)": "01ffc9a7",
    "userCommit()": "b0f72b4e",
    "userMint()": "df8f460f",
    "withdrawFunds(address,uint256)": "c1075329"
  },
  "id": 32
}