{
  "abi": [
    {
      "inputs": [
        {
          "internalType": "string",
          "name": "_base_uri",
          "type": "string"
        }
      ],
      "stateMutability": "nonpayable",
      "type": "constructor"
    },
    {
      "anonymous": false,
      "inputs": [
        {
          "indexed": true,
          "internalType": "address",
          "name": "account",
          "type": "address"
        },
        {
          "indexed": true,
          "internalType": "address",
          "name": "operator",
          "type": "address"
        },
        {
          "indexed": false,
          "internalType": "bool",
          "name": "approved",
          "type": "bool"
        }
      ],
      "name": "ApprovalForAll",
      "type": "event"
    },
    {
      "anonymous": false,
      "inputs": [
        {
          "indexed": true,
          "internalType": "address",
          "name": "account",
          "type": "address"
        },
        {
          "indexed": true,
          "internalType": "uint256",
          "name": "id",
          "type": "uint256"
        },
        {
          "indexed": false,
          "internalType": "uint256",
          "name": "amount",
          "type": "uint256"
        },
        {
          "indexed": false,
          "internalType": "bytes",
          "name": "data",
          "type": "bytes"
        }
      ],
      "name": "Mint",
      "type": "event"
    },
    {
      "anonymous": false,
      "inputs": [
        {
          "indexed": true,
          "internalType": "bytes32",
          "name": "role",
          "type": "bytes32"
        },
        {
          "indexed": true,
          "internalType": "bytes32",
          "name": "previousAdminRole",
          "type": "bytes32"
        },
        {
          "indexed": true,
          "internalType": "bytes32",
          "name": "newAdminRole",
          "type": "bytes32"
        }
      ],
      "name": "RoleAdminChanged",
      "type": "event"
    },
    {
      "anonymous": false,
      "inputs": [
        {
          "indexed": true,
          "internalType": "bytes32",
          "name": "role",
          "type": "bytes32"
        },
        {
          "indexed": true,
          "internalType": "address",
          "name": "account",
          "type": "address"
        },
        {
          "indexed": true,
          "internalType": "address",
          "name": "sender",
          "type": "address"
        }
      ],
      "name": "RoleGranted",
      "type": "event"
    },
    {
      "anonymous": false,
      "inputs": [
        {
          "indexed": true,
          "internalType": "bytes32",
          "name": "role",
          "type": "bytes32"
        },
        {
          "indexed": true,
          "internalType": "address",
          "name": "account",
          "type": "address"
        },
        {
          "indexed": true,
          "internalType": "address",
          "name": "sender",
          "type": "address"
        }
      ],
      "name": "RoleRevoked",
      "type": "event"
    },
    {
      "anonymous": false,
      "inputs": [
        {
          "indexed": true,
          "internalType": "address",
          "name": "operator",
          "type": "address"
        },
        {
          "indexed": true,
          "internalType": "address",
          "name": "from",
          "type": "address"
        },
        {
          "indexed": true,
          "internalType": "address",
          "name": "to",
          "type": "address"
        },
        {
          "indexed": false,
          "internalType": "uint256[]",
          "name": "ids",
          "type": "uint256[]"
        },
        {
          "indexed": false,
          "internalType": "uint256[]",
          "name": "values",
          "type": "uint256[]"
        }
      ],
      "name": "TransferBatch",
      "type": "event"
    },
    {
      "anonymous": false,
      "inputs": [
        {
          "indexed": true,
          "internalType": "address",
          "name": "operator",
          "type": "address"
        },
        {
          "indexed": true,
          "internalType": "address",
          "name": "from",
          "type": "address"
        },
        {
          "indexed": true,
          "internalType": "address",
          "name": "to",
          "type": "address"
        },
        {
          "indexed": false,
          "internalType": "uint256",
          "name": "id",
          "type": "uint256"
        },
        {
          "indexed": false,
          "internalType": "uint256",
          "name": "value",
          "type": "uint256"
        }
      ],
      "name": "TransferSingle",
      "type": "event"
    },
    {
      "anonymous": false,
      "inputs": [
        {
          "indexed": false,
          "internalType": "string",
          "name": "value",
          "type": "string"
        },
        {
          "indexed": true,
          "internalType": "uint256",
          "name": "id",
          "type": "uint256"
        }
      ],
      "name": "URI",
      "type": "event"
    },
    {
      "inputs": [],
      "name": "DEFAULT_ADMIN_ROLE",
      "outputs": [
        {
          "internalType": "bytes32",
          "name": "",
          "type": "bytes32"
        }
      ],
      "stateMutability": "view",
      "type": "function"
    },
    {
      "inputs": [],
      "name": "ID_COUNT",
      "outputs": [
        {
          "internalType": "uint256",
          "name": "",
          "type": "uint256"
        }
      ],
      "stateMutability": "view",
      "type": "function"
    },
    {
      "inputs": [],
      "name": "MINTER_ROLE",
      "outputs": [
        {
          "internalType": "bytes32",
          "name": "",
          "type": "bytes32"
        }
      ],
      "stateMutability": "view",
      "type": "function"
    },
    {
      "inputs": [
        {
          "internalType": "address",
          "name": "account",
          "type": "address"
        }
      ],
      "name": "addAdminRole",
      "outputs": [],
      "stateMutability": "nonpayable",
      "type": "function"
    },
    {
      "inputs": [
        {
          "internalType": "address",
          "name": "account",
          "type": "address"
        }
      ],
      "name": "addMinterRole",
      "outputs": [],
      "stateMutability": "nonpayable",
      "type": "function"
    },
    {
      "inputs": [
        {
          "internalType": "address",
          "name": "account",
          "type": "address"
        },
        {
          "internalType": "uint256",
          "name": "id",
          "type": "uint256"
        }
      ],
      "name": "balanceOf",
      "outputs": [
        {
          "internalType": "uint256",
          "name": "",
          "type": "uint256"
        }
      ],
      "stateMutability": "view",
      "type": "function"
    },
    {
      "inputs": [
        {
          "internalType": "address[]",
          "name": "accounts",
          "type": "address[]"
        },
        {
          "internalType": "uint256[]",
          "name": "ids",
          "type": "uint256[]"
        }
      ],
      "name": "balanceOfBatch",
      "outputs": [
        {
          "internalType": "uint256[]",
          "name": "",
          "type": "uint256[]"
        }
      ],
      "stateMutability": "view",
      "type": "function"
    },
    {
      "inputs": [],
      "name": "base_uri",
      "outputs": [
        {
          "internalType": "string",
          "name": "",
          "type": "string"
        }
      ],
      "stateMutability": "view",
      "type": "function"
    },
    {
      "inputs": [],
      "name": "contractURI",
      "outputs": [
        {
          "internalType": "string",
          "name": "",
          "type": "string"
        }
      ],
      "stateMutability": "view",
      "type": "function"
    },
    {
      "inputs": [
        {
          "internalType": "bytes32",
          "name": "role",
          "type": "bytes32"
        }
      ],
      "name": "getRoleAdmin",
      "outputs": [
        {
          "internalType": "bytes32",
          "name": "",
          "type": "bytes32"
        }
      ],
      "stateMutability": "view",
      "type": "function"
    },
    {
      "inputs": [
        {
          "internalType": "bytes32",
          "name": "role",
          "type": "bytes32"
        },
        {
          "internalType": "address",
          "name": "account",
          "type": "address"
        }
      ],
      "name": "grantRole",
      "outputs": [],
      "stateMutability": "nonpayable",
      "type": "function"
    },
    {
      "inputs": [
        {
          "internalType": "bytes32",
          "name": "role",
          "type": "bytes32"
        },
        {
          "internalType": "address",
          "name": "account",
          "type": "address"
        }
      ],
      "name": "hasRole",
      "outputs": [
        {
          "internalType": "bool",
          "name": "",
          "type": "bool"
        }
      ],
      "stateMutability": "view",
      "type": "function"
    },
    {
      "inputs": [
        {
          "internalType": "address",
          "name": "account",
          "type": "address"
        },
        {
          "internalType": "address",
          "name": "operator",
          "type": "address"
        }
      ],
      "name": "isApprovedForAll",
      "outputs": [
        {
          "internalType": "bool",
          "name": "",
          "type": "bool"
        }
      ],
      "stateMutability": "view",
      "type": "function"
    },
    {
      "inputs": [
        {
          "internalType": "address",
          "name": "account",
          "type": "address"
        },
        {
          "internalType": "uint256",
          "name": "id",
          "type": "uint256"
        },
        {
          "internalType": "uint256",
          "name": "amount",
          "type": "uint256"
        },
        {
          "internalType": "bytes",
          "name": "data",
          "type": "bytes"
        }
      ],
      "name": "mint",
      "outputs": [],
      "stateMutability": "nonpayable",
      "type": "function"
    },
    {
      "inputs": [
        {
          "internalType": "address",
          "name": "account",
          "type": "address"
        }
      ],
      "name": "removeAdminRole",
      "outputs": [],
      "stateMutability": "nonpayable",
      "type": "function"
    },
    {
      "inputs": [
        {
          "internalType": "address",
          "name": "account",
          "type": "address"
        }
      ],
      "name": "removeMinterRole",
      "outputs": [],
      "stateMutability": "nonpayable",
      "type": "function"
    },
    {
      "inputs": [
        {
          "internalType": "bytes32",
          "name": "role",
          "type": "bytes32"
        },
        {
          "internalType": "address",
          "name": "account",
          "type": "address"
        }
      ],
      "name": "renounceRole",
      "outputs": [],
      "stateMutability": "nonpayable",
      "type": "function"
    },
    {
      "inputs": [
        {
          "internalType": "bytes32",
          "name": "role",
          "type": "bytes32"
        },
        {
          "internalType": "address",
          "name": "account",
          "type": "address"
        }
      ],
      "name": "revokeRole",
      "outputs": [],
      "stateMutability": "nonpayable",
      "type": "function"
    },
    {
      "inputs": [
        {
          "internalType": "address",
          "name": "from",
          "type": "address"
        },
        {
          "internalType": "address",
          "name": "to",
          "type": "address"
        },
        {
          "internalType": "uint256[]",
          "name": "ids",
          "type": "uint256[]"
        },
        {
          "internalType": "uint256[]",
          "name": "amounts",
          "type": "uint256[]"
        },
        {
          "internalType": "bytes",
          "name": "data",
          "type": "bytes"
        }
      ],
      "name": "safeBatchTransferFrom",
      "outputs": [],
      "stateMutability": "nonpayable",
      "type": "function"
    },
    {
      "inputs": [
        {
          "internalType": "address",
          "name": "from",
          "type": "address"
        },
        {
          "internalType": "address",
          "name": "to",
          "type": "address"
        },
        {
          "internalType": "uint256",
          "name": "id",
          "type": "uint256"
        },
        {
          "internalType": "uint256",
          "name": "amount",
          "type": "uint256"
        },
        {
          "internalType": "bytes",
          "name": "data",
          "type": "bytes"
        }
      ],
      "name": "safeTransferFrom",
      "outputs": [],
      "stateMutability": "nonpayable",
      "type": "function"
    },
    {
      "inputs": [
        {
          "internalType": "address",
          "name": "operator",
          "type": "address"
        },
        {
          "internalType": "bool",
          "name": "approved",
          "type": "bool"
        }
      ],
      "name": "setApprovalForAll",
      "outputs": [],
      "stateMutability": "nonpayable",
      "type": "function"
    },
    {
      "inputs": [
        {
          "internalType": "bytes4",
          "name": "interfaceId",
          "type": "bytes4"
        }
      ],
      "name": "supportsInterface",
      "outputs": [
        {
          "internalType": "bool",
          "name": "",
          "type": "bool"
        }
      ],
      "stateMutability": "view",
      "type": "function"
    },
    {
      "inputs": [
        {
          "internalType": "uint256",
          "name": "_tokenid",
          "type": "uint256"
        }
      ],
      "name": "uri",
      "outputs": [
        {
          "internalType": "string",
          "name": "",
          "type": "string"
        }
      ],
      "stateMutability": "view",
      "type": "function"
    }
  ],
  "bytecode": {
    "object": "0x60a0604052600060809081526004906200001a9082620001ed565b503480156200002857600080fd5b50604051620023b2380380620023b28339810160408190526200004b91620002b9565b604080516020810190915260008152620000658162000089565b506004620000748282620001ed565b50620000826000336200009b565b506200038e565b6002620000978282620001ed565b5050565b60008281526003602090815260408083206001600160a01b038516845290915290205462000097908390839060ff16620000975760008281526003602090815260408083206001600160a01b03851684529091529020805460ff19166001179055620001043390565b6001600160a01b0316816001600160a01b0316837f2f8788117e7eff1d82e926ec794901d17c78024a50270940304540a733656f0d60405160405180910390a45050565b634e487b7160e01b600052604160045260246000fd5b600181811c908216806200017357607f821691505b6020821081036200019457634e487b7160e01b600052602260045260246000fd5b50919050565b601f821115620001e857600081815260208120601f850160051c81016020861015620001c35750805b601f850160051c820191505b81811015620001e457828155600101620001cf565b5050505b505050565b81516001600160401b0381111562000209576200020962000148565b62000221816200021a84546200015e565b846200019a565b602080601f831160018114620002595760008415620002405750858301515b600019600386901b1c1916600185901b178555620001e4565b600085815260208120601f198616915b828110156200028a5788860151825594840194600190910190840162000269565b5085821015620002a95787850151600019600388901b60f8161c191681555b5050505050600190811b01905550565b60006020808385031215620002cd57600080fd5b82516001600160401b0380821115620002e557600080fd5b818501915085601f830112620002fa57600080fd5b8151818111156200030f576200030f62000148565b604051601f8201601f19908116603f011681019083821181831017156200033a576200033a62000148565b8160405282815288868487010111156200035357600080fd5b600093505b8284101562000377578484018601518185018701529285019262000358565b600086848301015280965050505050505092915050565b612014806200039e6000396000f3fe608060405234801561001057600080fd5b506004361061014c5760003560e01c8063731133e9116100c3578063d53913931161007c578063d5391393146102c2578063d547741f146102d7578063dccfe310146102ea578063e8a3d485146102fd578063e985e9c514610305578063f242432a1461034157600080fd5b8063731133e914610266578063786f29101461027957806391d1485414610281578063a217fddf14610294578063a22cb4651461029c578063adbf3776146102af57600080fd5b80632eb2c2d6116101155780632eb2c2d6146101e55780632f2ff15d146101fa57806336568abe1461020d5780634e1273f41461022057806354f1e126146102405780636595171c1461025357600080fd5b8062fdd58e1461015157806301ffc9a7146101775780630a87aecb1461019a5780630e89341c146101a2578063248a9ca3146101c2575b600080fd5b61016461015f366004611559565b610354565b6040519081526020015b60405180910390f35b61018a610185366004611599565b6103ed565b604051901515815260200161016e565b610164600481565b6101b56101b03660046115b6565b610407565b60405161016e919061161f565b6101646101d03660046115b6565b60009081526003602052604090206001015490565b6101f86101f336600461177e565b61043b565b005b6101f8610208366004611828565b610487565b6101f861021b366004611828565b6104b1565b61023361022e366004611854565b61052f565b60405161016e919061195a565b6101f861024e36600461196d565b610659565b6101f861026136600461196d565b61067c565b6101f8610274366004611988565b610692565b6101b5610701565b61018a61028f366004611828565b61078f565b610164600081565b6101f86102aa3660046119e9565b6107ba565b6101f86102bd36600461196d565b6107c5565b610164600080516020611fbf83398151915281565b6101f86102e5366004611828565b6107e8565b6101f86102f836600461196d565b61080d565b6101b561088c565b61018a610313366004611a25565b6001600160a01b03918216600090815260016020908152604080832093909416825291909152205460ff1690565b6101f861034f366004611a4f565b6108b4565b60006001600160a01b0383166103c45760405162461bcd60e51b815260206004820152602a60248201527f455243313135353a2061646472657373207a65726f206973206e6f742061207660448201526930b634b21037bbb732b960b11b60648201526084015b60405180910390fd5b506000818152602081815260408083206001600160a01b03861684529091529020545b92915050565b60006103f8826108f9565b806103e757506103e782610949565b606060046104148361096e565b604051602001610425929190611b8b565b6040516020818303038152906040529050919050565b6001600160a01b03851633148061045757506104578533610313565b6104735760405162461bcd60e51b81526004016103bb90611bc0565b6104808585858585610a01565b5050505050565b6000828152600360205260409020600101546104a281610bde565b6104ac8383610beb565b505050565b6001600160a01b03811633146105215760405162461bcd60e51b815260206004820152602f60248201527f416363657373436f6e74726f6c3a2063616e206f6e6c792072656e6f756e636560448201526e103937b632b9903337b91039b2b63360891b60648201526084016103bb565b61052b8282610c71565b5050565b606081518351146105945760405162461bcd60e51b815260206004820152602960248201527f455243313135353a206163636f756e747320616e6420696473206c656e677468604482015268040dad2e6dac2e8c6d60bb1b60648201526084016103bb565b6000835167ffffffffffffffff8111156105b0576105b0611632565b6040519080825280602002602001820160405280156105d9578160200160208202803683370190505b50905060005b8451811015610651576106248582815181106105fd576105fd611c0e565b602002602001015185838151811061061757610617611c0e565b6020026020010151610354565b82828151811061063657610636611c0e565b602090810291909101015261064a81611c3a565b90506105df565b509392505050565b600061066481610bde565b61052b600080516020611fbf833981519152836107e8565b600061068781610bde565b61052b600083610487565b600080516020611fbf8339815191526106aa81610bde565b6106b685858585610cd8565b83856001600160a01b03167f6f22b1e1e34475d2453ef65c35f74a9b1e2183b5038d895d7f439cc9121a8c8285856040516106f2929190611c53565b60405180910390a35050505050565b6004805461070e90611ab4565b80601f016020809104026020016040519081016040528092919081815260200182805461073a90611ab4565b80156107875780601f1061075c57610100808354040283529160200191610787565b820191906000526020600020905b81548152906001019060200180831161076a57829003601f168201915b505050505081565b60009182526003602090815260408084206001600160a01b0393909316845291905290205460ff1690565b61052b338383610dec565b60006107d081610bde565b61052b600080516020611fbf83398151915283610487565b60008281526003602052604090206001015461080381610bde565b6104ac8383610c71565b600061081881610bde565b336001600160a01b038316036108815760405162461bcd60e51b815260206004820152602860248201527f43616e6e6f74207265766f6b65206f6e6573656c662066726f6d20616e2061646044820152676d696e20726f6c6560c01b60648201526084016103bb565b61052b6000836107e8565b606060046040516020016108a09190611c74565b604051602081830303815290604052905090565b6001600160a01b0385163314806108d057506108d08533610313565b6108ec5760405162461bcd60e51b81526004016103bb90611bc0565b6104808585858585610ecc565b60006001600160e01b03198216636cdb3d1360e11b148061092a57506001600160e01b031982166303a24d0760e21b145b806103e757506301ffc9a760e01b6001600160e01b03198316146103e7565b60006001600160e01b03198216637965db0b60e01b14806103e757506103e7826108f9565b6060600061097b83610ff6565b600101905060008167ffffffffffffffff81111561099b5761099b611632565b6040519080825280601f01601f1916602001820160405280156109c5576020820181803683370190505b5090508181016020015b600019016f181899199a1a9b1b9c1cb0b131b232b360811b600a86061a8153600a85049450846109cf57509392505050565b8151835114610a635760405162461bcd60e51b815260206004820152602860248201527f455243313135353a2069647320616e6420616d6f756e7473206c656e677468206044820152670dad2e6dac2e8c6d60c31b60648201526084016103bb565b6001600160a01b038416610a895760405162461bcd60e51b81526004016103bb90611c9d565b3360005b8451811015610b70576000858281518110610aaa57610aaa611c0e565b602002602001015190506000858381518110610ac857610ac8611c0e565b602090810291909101810151600084815280835260408082206001600160a01b038e168352909352919091205490915081811015610b185760405162461bcd60e51b81526004016103bb90611ce2565b6000838152602081815260408083206001600160a01b038e8116855292528083208585039055908b16825281208054849290610b55908490611d2c565b9250508190555050505080610b6990611c3a565b9050610a8d565b50846001600160a01b0316866001600160a01b0316826001600160a01b03167f4a39dc06d4c0dbc64b70af90fd698a233a518aa5d07e595d983b8c0526c8f7fb8787604051610bc0929190611d3f565b60405180910390a4610bd68187878787876110ce565b505050505050565b610be88133611229565b50565b610bf5828261078f565b61052b5760008281526003602090815260408083206001600160a01b03851684529091529020805460ff19166001179055610c2d3390565b6001600160a01b0316816001600160a01b0316837f2f8788117e7eff1d82e926ec794901d17c78024a50270940304540a733656f0d60405160405180910390a45050565b610c7b828261078f565b1561052b5760008281526003602090815260408083206001600160a01b0385168085529252808320805460ff1916905551339285917ff6391f5c32d9c69d2a47ea670b442974b53935d1edc7fd64eb21e047a839171b9190a45050565b6001600160a01b038416610d385760405162461bcd60e51b815260206004820152602160248201527f455243313135353a206d696e7420746f20746865207a65726f206164647265736044820152607360f81b60648201526084016103bb565b336000610d4485611282565b90506000610d5185611282565b90506000868152602081815260408083206001600160a01b038b16845290915281208054879290610d83908490611d2c565b909155505060408051878152602081018790526001600160a01b03808a1692600092918716917fc3d58168c5ae7397731d063d5bbf3d657854427343f4c083240f7aacaa2d0f62910160405180910390a4610de3836000898989896112cd565b50505050505050565b816001600160a01b0316836001600160a01b031603610e5f5760405162461bcd60e51b815260206004820152602960248201527f455243313135353a2073657474696e6720617070726f76616c20737461747573604482015268103337b91039b2b63360b91b60648201526084016103bb565b6001600160a01b03838116600081815260016020908152604080832094871680845294825291829020805460ff191686151590811790915591519182527f17307eab39ab6107e8899845ad3d59bd9653f200f220920489ca2b5937696c31910160405180910390a3505050565b6001600160a01b038416610ef25760405162461bcd60e51b81526004016103bb90611c9d565b336000610efe85611282565b90506000610f0b85611282565b90506000868152602081815260408083206001600160a01b038c16845290915290205485811015610f4e5760405162461bcd60e51b81526004016103bb90611ce2565b6000878152602081815260408083206001600160a01b038d8116855292528083208985039055908a16825281208054889290610f8b908490611d2c565b909155505060408051888152602081018890526001600160a01b03808b16928c821692918816917fc3d58168c5ae7397731d063d5bbf3d657854427343f4c083240f7aacaa2d0f62910160405180910390a4610feb848a8a8a8a8a6112cd565b505050505050505050565b60008072184f03e93ff9f4daa797ed6e38ed64bf6a1f0160401b83106110355772184f03e93ff9f4daa797ed6e38ed64bf6a1f0160401b830492506040015b6d04ee2d6d415b85acef81000000008310611061576d04ee2d6d415b85acef8100000000830492506020015b662386f26fc10000831061107f57662386f26fc10000830492506010015b6305f5e1008310611097576305f5e100830492506008015b61271083106110ab57612710830492506004015b606483106110bd576064830492506002015b600a83106103e75760010192915050565b6001600160a01b0384163b15610bd65760405163bc197c8160e01b81526001600160a01b0385169063bc197c81906111129089908990889088908890600401611d6d565b6020604051808303816000875af192505050801561114d575060408051601f3d908101601f1916820190925261114a91810190611dcb565b60015b6111f957611159611de8565b806308c379a003611192575061116d611e04565b806111785750611194565b8060405162461bcd60e51b81526004016103bb919061161f565b505b60405162461bcd60e51b815260206004820152603460248201527f455243313135353a207472616e7366657220746f206e6f6e2d455243313135356044820152732932b1b2b4bb32b91034b6b83632b6b2b73a32b960611b60648201526084016103bb565b6001600160e01b0319811663bc197c8160e01b14610de35760405162461bcd60e51b81526004016103bb90611e8e565b611233828261078f565b61052b5761124081611388565b61124b83602061139a565b60405160200161125c929190611ed6565b60408051601f198184030181529082905262461bcd60e51b82526103bb9160040161161f565b604080516001808252818301909252606091600091906020808301908036833701905050905082816000815181106112bc576112bc611c0e565b602090810291909101015292915050565b6001600160a01b0384163b15610bd65760405163f23a6e6160e01b81526001600160a01b0385169063f23a6e61906113119089908990889088908890600401611f4b565b6020604051808303816000875af192505050801561134c575060408051601f3d908101601f1916820190925261134991810190611dcb565b60015b61135857611159611de8565b6001600160e01b0319811663f23a6e6160e01b14610de35760405162461bcd60e51b81526004016103bb90611e8e565b60606103e76001600160a01b03831660145b606060006113a9836002611f90565b6113b4906002611d2c565b67ffffffffffffffff8111156113cc576113cc611632565b6040519080825280601f01601f1916602001820160405280156113f6576020820181803683370190505b509050600360fc1b8160008151811061141157611411611c0e565b60200101906001600160f81b031916908160001a905350600f60fb1b8160018151811061144057611440611c0e565b60200101906001600160f81b031916908160001a9053506000611464846002611f90565b61146f906001611d2c565b90505b60018111156114e7576f181899199a1a9b1b9c1cb0b131b232b360811b85600f16601081106114a3576114a3611c0e565b1a60f81b8282815181106114b9576114b9611c0e565b60200101906001600160f81b031916908160001a90535060049490941c936114e081611fa7565b9050611472565b5083156115365760405162461bcd60e51b815260206004820181905260248201527f537472696e67733a20686578206c656e67746820696e73756666696369656e7460448201526064016103bb565b9392505050565b80356001600160a01b038116811461155457600080fd5b919050565b6000806040838503121561156c57600080fd5b6115758361153d565b946020939093013593505050565b6001600160e01b031981168114610be857600080fd5b6000602082840312156115ab57600080fd5b813561153681611583565b6000602082840312156115c857600080fd5b5035919050565b60005b838110156115ea5781810151838201526020016115d2565b50506000910152565b6000815180845261160b8160208601602086016115cf565b601f01601f19169290920160200192915050565b60208152600061153660208301846115f3565b634e487b7160e01b600052604160045260246000fd5b601f8201601f1916810167ffffffffffffffff8111828210171561166e5761166e611632565b6040525050565b600067ffffffffffffffff82111561168f5761168f611632565b5060051b60200190565b600082601f8301126116aa57600080fd5b813560206116b782611675565b6040516116c48282611648565b83815260059390931b85018201928281019150868411156116e457600080fd5b8286015b848110156116ff57803583529183019183016116e8565b509695505050505050565b600082601f83011261171b57600080fd5b813567ffffffffffffffff81111561173557611735611632565b60405161174c601f8301601f191660200182611648565b81815284602083860101111561176157600080fd5b816020850160208301376000918101602001919091529392505050565b600080600080600060a0868803121561179657600080fd5b61179f8661153d565b94506117ad6020870161153d565b9350604086013567ffffffffffffffff808211156117ca57600080fd5b6117d689838a01611699565b945060608801359150808211156117ec57600080fd5b6117f889838a01611699565b9350608088013591508082111561180e57600080fd5b5061181b8882890161170a565b9150509295509295909350565b6000806040838503121561183b57600080fd5b8235915061184b6020840161153d565b90509250929050565b6000806040838503121561186757600080fd5b823567ffffffffffffffff8082111561187f57600080fd5b818501915085601f83011261189357600080fd5b813560206118a082611675565b6040516118ad8282611648565b83815260059390931b85018201928281019150898411156118cd57600080fd5b948201945b838610156118f2576118e38661153d565b825294820194908201906118d2565b9650508601359250508082111561190857600080fd5b5061191585828601611699565b9150509250929050565b600081518084526020808501945080840160005b8381101561194f57815187529582019590820190600101611933565b509495945050505050565b602081526000611536602083018461191f565b60006020828403121561197f57600080fd5b6115368261153d565b6000806000806080858703121561199e57600080fd5b6119a78561153d565b93506020850135925060408501359150606085013567ffffffffffffffff8111156119d157600080fd5b6119dd8782880161170a565b91505092959194509250565b600080604083850312156119fc57600080fd5b611a058361153d565b915060208301358015158114611a1a57600080fd5b809150509250929050565b60008060408385031215611a3857600080fd5b611a418361153d565b915061184b6020840161153d565b600080600080600060a08688031215611a6757600080fd5b611a708661153d565b9450611a7e6020870161153d565b93506040860135925060608601359150608086013567ffffffffffffffff811115611aa857600080fd5b61181b8882890161170a565b600181811c90821680611ac857607f821691505b602082108103611ae857634e487b7160e01b600052602260045260246000fd5b50919050565b8054600090600181811c9080831680611b0857607f831692505b60208084108203611b2957634e487b7160e01b600052602260045260246000fd5b818015611b3d5760018114611b5257611b7f565b60ff1986168952841515850289019650611b7f565b60008881526020902060005b86811015611b775781548b820152908501908301611b5e565b505084890196505b50505050505092915050565b6000611b978285611aee565b8351611ba78183602088016115cf565b64173539b7b760d91b9101908152600501949350505050565b6020808252602e908201527f455243313135353a2063616c6c6572206973206e6f7420746f6b656e206f776e60408201526d195c881bdc88185c1c1c9bdd995960921b606082015260800190565b634e487b7160e01b600052603260045260246000fd5b634e487b7160e01b600052601160045260246000fd5b600060018201611c4c57611c4c611c24565b5060010190565b828152604060208201526000611c6c60408301846115f3565b949350505050565b6000611c808284611aee565b6c31b7b73a3930b1ba173539b7b760991b8152600d019392505050565b60208082526025908201527f455243313135353a207472616e7366657220746f20746865207a65726f206164604082015264647265737360d81b606082015260800190565b6020808252602a908201527f455243313135353a20696e73756666696369656e742062616c616e636520666f60408201526939103a3930b739b332b960b11b606082015260800190565b808201808211156103e7576103e7611c24565b604081526000611d52604083018561191f565b8281036020840152611d64818561191f565b95945050505050565b6001600160a01b0386811682528516602082015260a060408201819052600090611d999083018661191f565b8281036060840152611dab818661191f565b90508281036080840152611dbf81856115f3565b98975050505050505050565b600060208284031215611ddd57600080fd5b815161153681611583565b600060033d1115611e015760046000803e5060005160e01c5b90565b600060443d1015611e125790565b6040516003193d81016004833e81513d67ffffffffffffffff8160248401118184111715611e4257505050505090565b8285019150815181811115611e5a5750505050505090565b843d8701016020828501011115611e745750505050505090565b611e8360208286010187611648565b509095945050505050565b60208082526028908201527f455243313135353a204552433131353552656365697665722072656a656374656040820152676420746f6b656e7360c01b606082015260800190565b7f416363657373436f6e74726f6c3a206163636f756e7420000000000000000000815260008351611f0e8160178501602088016115cf565b7001034b99036b4b9b9b4b733903937b6329607d1b6017918401918201528351611f3f8160288401602088016115cf565b01602801949350505050565b6001600160a01b03868116825285166020820152604081018490526060810183905260a060808201819052600090611f85908301846115f3565b979650505050505050565b80820281158282048414176103e7576103e7611c24565b600081611fb657611fb6611c24565b50600019019056fe9f2df0fed2c77648de5860a4cc508cd0818c85b8b8a1ab4ceeef8d981c8956a6a26469706673582212207c83840117d85c6ebdafed3f1526f858db595e84d67ae24c544ebf83d5acb80764736f6c63430008110033",
    "linkReferences": {}
  },
  "methodIdentifiers": {
    "DEFAULT_ADMIN_ROLE()": "a217fddf",
    "ID_COUNT()": "0a87aecb",
    "MINTER_ROLE()": "d5391393",
    "addAdminRole(address)": "6595171c",
    "addMinterRole(address)": "adbf3776",
    "balanceOf(address,uint256)": "00fdd58e",
    "balanceOfBatch(address[],uint256[])": "4e1273f4",
    "base_uri()": "786f2910",
    "contractURI()": "e8a3d485",
    "getRoleAdmin(bytes32)": "248a9ca3",
    "grantRole(bytes32,address)": "2f2ff15d",
    "hasRole(bytes32,address)": "91d14854",
    "isApprovedForAll(address,address)": "e985e9c5",
    "mint(address,uint256,uint256,bytes)": "731133e9",
    "removeAdminRole(address)": "dccfe310",
    "removeMinterRole(address)": "54f1e126",
    "renounceRole(bytes32,address)": "36568abe",
    "revokeRole(bytes32,address)": "d547741f",
    "safeBatchTransferFrom(address,address,uint256[],uint256[],bytes)": "2eb2c2d6",
    "safeTransferFrom(address,address,uint256,uint256,bytes)": "f242432a",
    "setApprovalForAll(address,bool)": "a22cb465",
    "supportsInterface(bytes4)": "01ffc9a7",
    "uri(uint256)": "0e89341c"
  },
  "id": 33
}